{"contracts/Bets.sol":{"Bets":{"abi":[{"inputs":[],"stateMutability":"nonpayable","type":"constructor"},{"anonymous":false,"inputs":[{"indexed":true,"internalType":"uint256","name":"eventId","type":"uint256"},{"indexed":true,"internalType":"address","name":"better","type":"address"},{"indexed":false,"internalType":"uint256","name":"amount","type":"uint256"}],"name":"BetPaid","type":"event"},{"anonymous":false,"inputs":[{"indexed":true,"internalType":"uint256","name":"eventId","type":"uint256"},{"indexed":true,"internalType":"address","name":"better","type":"address"},{"indexed":false,"internalType":"uint256","name":"amount","type":"uint256"},{"indexed":false,"internalType":"uint8","name":"predictedResult","type":"uint8"},{"indexed":false,"internalType":"uint256","name":"odds","type":"uint256"}],"name":"BetPlaced","type":"event"},{"anonymous":false,"inputs":[{"indexed":true,"internalType":"uint256","name":"eventId","type":"uint256"},{"indexed":false,"internalType":"uint256","name":"oddsTeam1","type":"uint256"},{"indexed":false,"internalType":"uint256","name":"oddsTeam2","type":"uint256"},{"indexed":false,"internalType":"uint256","name":"oddsDraw","type":"uint256"}],"name":"OddsUpdated","type":"event"},{"inputs":[{"internalType":"uint256","name":"eventType","type":"uint256"},{"internalType":"string","name":"name","type":"string"},{"internalType":"string","name":"team1name","type":"string"},{"internalType":"string","name":"team2name","type":"string"},{"internalType":"string","name":"team1imgurl","type":"string"},{"internalType":"string","name":"team2imgurl","type":"string"},{"internalType":"string","name":"time","type":"string"},{"internalType":"uint256","name":"oddsTeam1","type":"uint256"},{"internalType":"uint256","name":"oddsTeam2","type":"uint256"},{"internalType":"uint256","name":"oddsDraw","type":"uint256"}],"name":"createEvent","outputs":[],"stateMutability":"nonpayable","type":"function"},{"inputs":[{"internalType":"uint256","name":"","type":"uint256"},{"internalType":"uint256","name":"","type":"uint256"}],"name":"eventBets","outputs":[{"internalType":"uint256","name":"eventId","type":"uint256"},{"internalType":"address payable","name":"better","type":"address"},{"internalType":"uint8","name":"predictedResult","type":"uint8"},{"internalType":"uint256","name":"amount","type":"uint256"},{"internalType":"uint256","name":"odds","type":"uint256"},{"internalType":"bool","name":"paid","type":"bool"}],"stateMutability":"view","type":"function"},{"inputs":[{"internalType":"uint256","name":"","type":"uint256"}],"name":"events","outputs":[{"internalType":"uint256","name":"id","type":"uint256"},{"internalType":"uint256","name":"eventType","type":"uint256"},{"internalType":"string","name":"name","type":"string"},{"internalType":"string","name":"team1name","type":"string"},{"internalType":"string","name":"team2name","type":"string"},{"internalType":"string","name":"team1imgurl","type":"string"},{"internalType":"string","name":"team2imgurl","type":"string"},{"internalType":"string","name":"time","type":"string"},{"internalType":"uint8","name":"result","type":"uint8"},{"internalType":"bool","name":"isActive","type":"bool"},{"internalType":"uint256","name":"oddsTeam1","type":"uint256"},{"internalType":"uint256","name":"oddsTeam2","type":"uint256"},{"internalType":"uint256","name":"oddsDraw","type":"uint256"},{"internalType":"uint256","name":"totalBetsTeam1","type":"uint256"},{"internalType":"uint256","name":"totalBetsTeam2","type":"uint256"},{"internalType":"uint256","name":"totalBetsDraw","type":"uint256"}],"stateMutability":"view","type":"function"},{"inputs":[],"name":"getActiveEvents","outputs":[{"components":[{"internalType":"uint256","name":"id","type":"uint256"},{"internalType":"uint256","name":"eventType","type":"uint256"},{"internalType":"string","name":"name","type":"string"},{"internalType":"string","name":"team1name","type":"string"},{"internalType":"string","name":"team2name","type":"string"},{"internalType":"string","name":"team1imgurl","type":"string"},{"internalType":"string","name":"team2imgurl","type":"string"},{"internalType":"string","name":"time","type":"string"},{"internalType":"uint8","name":"result","type":"uint8"},{"internalType":"bool","name":"isActive","type":"bool"},{"internalType":"uint256","name":"oddsTeam1","type":"uint256"},{"internalType":"uint256","name":"oddsTeam2","type":"uint256"},{"internalType":"uint256","name":"oddsDraw","type":"uint256"},{"internalType":"uint256","name":"totalBetsTeam1","type":"uint256"},{"internalType":"uint256","name":"totalBetsTeam2","type":"uint256"},{"internalType":"uint256","name":"totalBetsDraw","type":"uint256"}],"internalType":"struct Bets.Event[]","name":"","type":"tuple[]"}],"stateMutability":"view","type":"function"},{"inputs":[{"internalType":"uint256","name":"_id","type":"uint256"}],"name":"getEventById","outputs":[{"components":[{"internalType":"uint256","name":"id","type":"uint256"},{"internalType":"uint256","name":"eventType","type":"uint256"},{"internalType":"string","name":"name","type":"string"},{"internalType":"string","name":"team1name","type":"string"},{"internalType":"string","name":"team2name","type":"string"},{"internalType":"string","name":"team1imgurl","type":"string"},{"internalType":"string","name":"team2imgurl","type":"string"},{"internalType":"string","name":"time","type":"string"},{"internalType":"uint8","name":"result","type":"uint8"},{"internalType":"bool","name":"isActive","type":"bool"},{"internalType":"uint256","name":"oddsTeam1","type":"uint256"},{"internalType":"uint256","name":"oddsTeam2","type":"uint256"},{"internalType":"uint256","name":"oddsDraw","type":"uint256"},{"internalType":"uint256","name":"totalBetsTeam1","type":"uint256"},{"internalType":"uint256","name":"totalBetsTeam2","type":"uint256"},{"internalType":"uint256","name":"totalBetsDraw","type":"uint256"}],"internalType":"struct Bets.Event","name":"","type":"tuple"}],"stateMutability":"view","type":"function"},{"inputs":[{"internalType":"uint256","name":"eventId","type":"uint256"}],"name":"getEventStats","outputs":[{"internalType":"uint256","name":"totalBetsTeam1","type":"uint256"},{"internalType":"uint256","name":"totalBetsTeam2","type":"uint256"},{"internalType":"uint256","name":"totalBetsDraw","type":"uint256"},{"internalType":"uint256","name":"totalPool","type":"uint256"}],"stateMutability":"view","type":"function"},{"inputs":[{"internalType":"address","name":"user","type":"address"}],"name":"getUserBets","outputs":[{"components":[{"internalType":"uint256","name":"eventId","type":"uint256"},{"internalType":"address payable","name":"better","type":"address"},{"internalType":"uint8","name":"predictedResult","type":"uint8"},{"internalType":"uint256","name":"amount","type":"uint256"},{"internalType":"uint256","name":"odds","type":"uint256"},{"internalType":"bool","name":"paid","type":"bool"}],"internalType":"struct Bets.Bet[]","name":"","type":"tuple[]"}],"stateMutability":"view","type":"function"},{"inputs":[{"internalType":"uint256","name":"eventId","type":"uint256"}],"name":"payBets","outputs":[],"stateMutability":"nonpayable","type":"function"},{"inputs":[{"internalType":"uint256","name":"eventId","type":"uint256"},{"internalType":"uint8","name":"predictedResult","type":"uint8"}],"name":"placeBet","outputs":[],"stateMutability":"payable","type":"function"},{"inputs":[{"internalType":"uint256","name":"eventId","type":"uint256"},{"internalType":"uint8","name":"result","type":"uint8"}],"name":"setEventResult","outputs":[],"stateMutability":"nonpayable","type":"function"},{"inputs":[{"internalType":"uint256","name":"eventId","type":"uint256"},{"internalType":"uint256","name":"oddsTeam1","type":"uint256"},{"internalType":"uint256","name":"oddsTeam2","type":"uint256"},{"internalType":"uint256","name":"oddsDraw","type":"uint256"}],"name":"updateOdds","outputs":[],"stateMutability":"nonpayable","type":"function"},{"stateMutability":"payable","type":"receive"}],"evm":{"bytecode":{"linkReferences":{},"object":"6080806040523461002b57600080546001600160a01b03191633178155600155611de690816100318239f35b600080fdfe6080604052600436101561001b575b361561001957600080fd5b005b60003560e01c806303edf914146116a157806308242f12146114535780630b791430146112f957806325a19f04146111c65780632d56657d14610f305780633612280f14610cdd5780638dcbbc6f14610c56578063af71f95c14610b9c578063b3a2df5114610299578063b98079bc146101765763ffa548dd0361000e5734610171576080366003190112610171576004357f893ac9c513b4380780f867c7b8bd044b0c9868ae211e7b5c6daaa79c936e4dbe6060602435604435606435906100ef60018060a01b03600054163314611c67565b85600052600260205261010f60ff60086040600020015460081c16611c18565b606483101580610166575b8061015b575b61012990611d6d565b85600052600260205281600b604060002085600982015583600a820155015560405192835260208301526040820152a2005b506064821015610120565b50606481101561011a565b600080fd5b346101715760203660031901126101715761018f611cf7565b5060043560005260026020526102956040600020600e604051916101b283611970565b80548352600181015460208401526101cc600282016119ad565b60408401526101dd600382016119ad565b60608401526101ee600482016119ad565b60808401526101ff600582016119ad565b60a0840152610210600682016119ad565b60c0840152610221600782016119ad565b60e084015260ff600882015481811661010086015260081c1615156101208401526009810154610140840152600a810154610160840152600b810154610180840152600c8101546101a0840152600d8101546101c084015201546101e0820152604051918291602083526020830190611a92565b0390f35b3461017157610140366003190112610171576024356001600160401b038111610171576102ca903690600401611bd1565b6044356001600160401b038111610171576102e9903690600401611bd1565b6064356001600160401b03811161017157610308903690600401611bd1565b6084356001600160401b03811161017157610327903690600401611bd1565b60a4356001600160401b03811161017157610346903690600401611bd1565b9060c4356001600160401b03811161017157610366903690600401611bd1565b9261037c60018060a01b03600054163314611c67565b606460e435101580610b8e575b80610b80575b61039890611d6d565b60015494604051966103a988611970565b868852600435602089015260408801526060870152608086015260a085015260c084015260e08301526000610100830152600161012083015260e435610140830152610104356101608301526101243561018083015260006101a083015260006101c083015260006101e083015260005260026020526040600020815181556020820151600182015560408201519182516001600160401b0381116107aa57610455600284015461191b565b601f8111610b39575b506020601f8211600114610acb5781929394600092610ac0575b50508160011b916000199060031b1c19161760028301555b60608101519182516001600160401b0381116107aa576104b3600383015461191b565b601f8111610a79575b506020601f8211600114610a0b5781929394600092610a00575b50508160011b916000199060031b1c19161760038201555b60808201519182516001600160401b0381116107aa57610511600484015461191b565b601f81116109b9575b506020601f821160011461094b5781929394600092610940575b50508160011b916000199060031b1c19161760048301555b60a08101519182516001600160401b0381116107aa5761056f600583015461191b565b601f81116108f9575b506020601f821160011461088b5781929394600092610880575b50508160011b916000199060031b1c19161760058201555b60c08201519182516001600160401b0381116107aa576105cd600684015461191b565b601f8111610839575b506020601f82116001146107cb57819293946000926107c0575b50508160011b916000199060031b1c19161760068301555b60e08101518051906001600160401b0382116107aa5761062b600785015461191b565b601f8111610763575b50602090601f83116001146106ed579180600e94926101e0946000926106e2575b50508160011b916000199060031b1c19161760078501555b6008840160ff6101008301511681549061ff00610120850151151560081b169161ffff1916171790556101408101516009850155610160810151600a850155610180810151600b8501556101a0810151600c8501556101c0810151600d85015501519101556106dd600154611cbd565b600155005b015190508680610655565b906007850160005260206000209160005b601f198516811061074b575092600e94926001926101e09583601f19811610610732575b505050811b01600785015561066d565b015160001960f88460031b161c19169055868080610722565b919260206001819286850151815501940192016106fe565b600785016000526020600020601f840160051c8101602085106107a3575b601f830160051c82018110610797575050610634565b60008155600101610781565b5080610781565b634e487b7160e01b600052604160045260246000fd5b0151905084806105f0565b6006840160005260206000209060005b601f19841681106108215750600193949583601f19811610610808575b505050811b016006830155610608565b015160001960f88460031b161c191690558480806107f8565b9091602060018192858a0151815501930191016107db565b600684016000526020600020601f830160051c810160208410610879575b601f830160051c8201811061086d5750506105d6565b60008155600101610857565b5080610857565b015190508480610592565b6005830160005260206000209060005b601f19841681106108e15750600193949583601f198116106108c8575b505050811b0160058201556105aa565b015160001960f88460031b161c191690558480806108b8565b9091602060018192858a01518155019301910161089b565b600583016000526020600020601f830160051c810160208410610939575b601f830160051c8201811061092d575050610578565b60008155600101610917565b5080610917565b015190508480610534565b6004840160005260206000209060005b601f19841681106109a15750600193949583601f19811610610988575b505050811b01600483015561054c565b015160001960f88460031b161c19169055848080610978565b9091602060018192858a01518155019301910161095b565b600484016000526020600020601f830160051c8101602084106109f9575b601f830160051c820181106109ed57505061051a565b600081556001016109d7565b50806109d7565b0151905084806104d6565b6003830160005260206000209060005b601f1984168110610a615750600193949583601f19811610610a48575b505050811b0160038201556104ee565b015160001960f88460031b161c19169055848080610a38565b9091602060018192858a015181550193019101610a1b565b600383016000526020600020601f830160051c810160208410610ab9575b601f830160051c82018110610aad5750506104bc565b60008155600101610a97565b5080610a97565b015190508480610478565b6002840160005260206000209060005b601f1984168110610b215750600193949583601f19811610610b08575b505050811b016002830155610490565b015160001960f88460031b161c19169055848080610af8565b9091602060018192858a015181550193019101610adb565b600284016000526020600020601f830160051c810160208410610b79575b601f830160051c82018110610b6d57505061045e565b60008155600101610b57565b5080610b57565b50606461012435101561038f565b506064610104351015610389565b346101715760ff610bac366118fb565b610bc460018060a09594951b03600054163314611c67565b826000526002602052610be38260086040600020015460081c16611c18565b1690600182101580610c4b575b15610c1557600052600260205260086040600020019061ffff19825416179055600080f35b60405162461bcd60e51b815260206004820152600e60248201526d125b9d985b1a59081c995cdd5b1d60921b6044820152606490fd5b506003821115610bf0565b34610171576040366003190112610171576024356004356000526003602052604060002080548210156101715760c091610c8f91611b84565b50805490600181015490600281015460ff8060046003850154940154169360405195865260018060a01b038116602087015260a01c16604085015260608401526080830152151560a0820152f35b346101715760003660031901126101715760008060018054915b828110610ef65750610d21610d0b84611ccc565b93610d19604051958661198c565b808552611ccc565b60209290601f190160005b818110610eda5750506000805b828110610da25750505060405191808301818452845180915260408401918060408360051b8701019601926000905b838210610d755786880387f35b90919293948380610d91839a603f198b82030186528951611a92565b999701959493919091019101610d68565b9283819694600052856002808252604060002090600880830154809160ff9283911c169283610ddb575b50505050505001949294610d39565b91600e9391610e0b610ece989a97969460405197610df889611970565b865489528b8701549089015285016119ad565b6040870152610e1c600385016119ad565b6060870152610e2d600485016119ad565b6080870152610e3e600585016119ad565b60a0870152610e4f600685016119ad565b60c0870152610e60600785016119ad565b60e08701521661010085015215156101208401526009810154610140840152600a810154610160840152600b810154610180840152600c8101546101a0840152600d8101546101c084015201546101e0820152610ebd8288611ce3565b52610ec88187611ce3565b50611cbd565b91858880808080610dcc565b8490610ee7969496611cf7565b82828701015201949294610d2c565b9081819492600052600260205260ff60088060406000200154901c16610f20575b01929092610cf7565b91610f2a90611cbd565b91610f17565b3461017157602080600319360112610171576004356001600160a01b038181169291839003610171579160009260006001928354915b82811061115b5750610f90610f7a87611ccc565b96610f88604051988961198c565b808852611ccc565b601f190160005b81811061111557505060009060005b83811061102a57505050506040519280840190808552855180925280604086019601926000905b838210610fda5786880387f35b845180518952838101518216848a015260408082015160ff16908a0152606080820151908a0152608080820151908a015260a09081015115159089015260c0909701969382019390850190610fcd565b90859795929183806000905b611049575b500190919250969496610fa6565b8260005289886003808352866040600020805486101561110b578661106f878693611b84565b5001541614611084575b505050810181611036565b9184939791611100938760005280835260046110a48b6040600020611b84565b50604051946110b286611955565b81548652888201549485169086015260ff928360a095861c1660408701526002820154606087015281015460808601520154161515908201526110f5828d611ce3565b52610ec8818c611ce3565b94905089888d611079565b505050505061103b565b869060409896985161112681611955565b60008152600083820152600060408201526000606082015260006080820152600060a082015282828901015201969496610f97565b93809694816000905b611173575b5001959395610f66565b8160005260038852838684604060002080548510156111bd578461119691611b84565b50015416146111a8575b820182611164565b95826111b48192611cbd565b979150506111a0565b50505050611169565b3461017157602036600319011261017157600435600052600260205260806040600020604051906111f682611970565b8054825260018101546020830152611210600282016119ad565b6040830152611221600382016119ad565b6060830152611232600482016119ad565b83830152611242600582016119ad565b60a0830152611253600682016119ad565b60c0830152611264600782016119ad565b60e083015260ff600882015481811661010085015260081c1615156101208301526009810154610140830152600a810154610160830152600b810154610180830152600c81015491826101a08201526112e16101e0600e600d85015494856101c0860152015492018281526112d98486611c5a565b905190611c5a565b91604051938452602084015260408301526060820152f35b34610171576020366003190112610171576004356000526002602052604060002080549060018101549060028101611330906119ad565b61133c600383016119ad565b91611349600482016119ad565b92611356600583016119ad565b93611363600684016119ad565b94611370600785016119ad565b95600885015496600986015491600a87015493600b88015495600c89015497600d8a015499600e01549a6040519e8f9e8f906102009282526020820152816040820152016113bd91611a52565b8d810360608f01526113ce91611a52565b8c810360808e01526113df91611a52565b8b810360a08d01526113f091611a52565b8a810360c08c015261140191611a52565b89810360e08b015261141291611a52565b9660ff81166101008a015260081c60ff1615156101208901526101408801526101608701526101808601526101a08501526101c08401526101e08301520390f35b34610171576020806003193601126101715760043560018060a01b0361147e81600054163314611c67565b816000526002916002845260ff60089060ff60086040600020015460081c1661166457826000526002865260ff600860406000200154161561161f5760005b8360005260038088526040600020805483101561001957826114de91611b84565b50600180820191825493886000528a8c5286886040600020015416878660a01c161480611611575b611518575b50505050506001016114bd565b8a82015490820154908181029181830414901517156115fb5760008080808d986064809604998a91165af13d156115f6573d60008e61155683611bb6565b92611564604051948561198c565b83523d92013e5b156115bd57508a8960019695948a9460047f0100cd22a04e3bfa4d7109899122210ffd588983ee3b6437a247e035f601b32695019060ff19825416179055541693604051908152a3908880808061150b565b60405162461bcd60e51b8152600481018d905260146024820152732330b4b632b2103a379039b2b7321022ba3432b960611b6044820152fd5b61156b565b634e487b7160e01b600052601160045260246000fd5b508660048301541615611506565b60405162461bcd60e51b815260048101879052601760248201527f4576656e7420726573756c74206973206e6f74207365740000000000000000006044820152606490fd5b60405162461bcd60e51b81526004810187905260156024820152744576656e74206973207374696c6c2061637469766560581b6044820152606490fd5b6116aa366118fb565b9080600052602091600283526116cd60ff60086040600020015460081c16611c18565b34156118aa5760ff1660018110158061189f575b1561185a5781600052600283526040600020906001811460001461182357600c60098301549201611713348254611c5a565b90555b8260005260038452604060002060405161172f81611955565b848152858101338152604082019084825260608301348152608084019187835260a0850195600087528054680100000000000000008110156107aa5761177a91600182018155611b84565b94909461180d57600495518555600185019160018060a01b0390511682549160ff60a01b905160a01b16916affffffffffffffffffffff60a81b1617179055516002830155516003820155019051151560ff801983541691161790556040519334855284015260408301527f7cdde6d299ea8fdc0aceb52128ad2948a1db7494031bd05ca26c6ae74b6e33b460603393a3005b634e487b7160e01b600052600060045260246000fd5b6002810361184657600d600a830154920161183f348254611c5a565b9055611716565b600e600b830154920161183f348254611c5a565b60405162461bcd60e51b815260048101849052601860248201527f496e76616c69642070726564696374656420726573756c7400000000000000006044820152606490fd5b5060038111156116e1565b60405162461bcd60e51b8152600481018490526024808201527f42657420616d6f756e74206d7573742062652067726561746572207468616e206044820152637a65726f60e01b6064820152608490fd5b6040906003190112610171576004359060243560ff811681036101715790565b90600182811c9216801561194b575b602083101461193557565b634e487b7160e01b600052602260045260246000fd5b91607f169161192a565b60c081019081106001600160401b038211176107aa57604052565b61020081019081106001600160401b038211176107aa57604052565b90601f801991011681019081106001600160401b038211176107aa57604052565b906040519182600082546119c08161191b565b90818452602094600191600181169081600014611a3057506001146119f1575b5050506119ef9250038361198c565b565b600090815285812095935091905b818310611a185750506119ef93508201013880806119e0565b855488840185015294850194879450918301916119ff565b925050506119ef94925060ff191682840152151560051b8201013880806119e0565b919082519283825260005b848110611a7e575050826000602080949584010152601f8019910116010190565b602081830181015184830182015201611a5d565b90611b24611b12611b00611aee611adc611aca61020088518852602089015160208901526040890151908060408a0152880190611a52565b60608801518782036060890152611a52565b60808701518682036080880152611a52565b60a086015185820360a0870152611a52565b60c085015184820360c0860152611a52565b60e084015183820360e0850152611a52565b9161010060ff818301511690830152610120808201511515908301526101408082015190830152610160808201519083015261018080820151908301526101a080820151908301526101c080820151908301526101e08091015191015290565b8054821015611ba0576000526005602060002091020190600090565b634e487b7160e01b600052603260045260246000fd5b6001600160401b0381116107aa57601f01601f191660200190565b81601f8201121561017157803590611be882611bb6565b92611bf6604051948561198c565b8284526020838301011161017157816000926020809301838601378301015290565b15611c1f57565b60405162461bcd60e51b81526020600482015260136024820152724576656e74206973206e6f742061637469766560681b6044820152606490fd5b919082018092116115fb57565b15611c6e57565b60405162461bcd60e51b815260206004820152602160248201527f4f6e6c79206f776e65722063616e2063616c6c20746869732066756e6374696f6044820152603760f91b6064820152608490fd5b60001981146115fb5760010190565b6001600160401b0381116107aa5760051b60200190565b8051821015611ba05760209160051b010190565b60405190611d0482611970565b816101e0600091828152826020820152606080604083015280808301528060808301528060a08301528060c083015260e08201528261010082015282610120820152826101408201528261016082015282610180820152826101a0820152826101c08201520152565b15611d7457565b60405162461bcd60e51b815260206004820152601460248201527304f646473206d757374206265203e3d20312e30360641b6044820152606490fdfea2646970667358221220c82f7f5be613cdc8dacbdf3ff73d201aebfb4d05d145027019ac1f7d4c4cce6b64736f6c63430008180033","opcodes":"PUSH1 0x80 DUP1 PUSH1 0x40 MSTORE CALLVALUE PUSH2 0x2B JUMPI PUSH1 0x0 DUP1 SLOAD PUSH1 0x1 PUSH1 0x1 PUSH1 0xA0 SHL SUB NOT AND CALLER OR DUP2 SSTORE PUSH1 0x1 SSTORE PUSH2 0x1DE6 SWAP1 DUP2 PUSH2 0x31 DUP3 CODECOPY RETURN JUMPDEST PUSH1 0x0 DUP1 REVERT INVALID PUSH1 0x80 PUSH1 0x40 MSTORE PUSH1 0x4 CALLDATASIZE LT ISZERO PUSH2 0x1B JUMPI JUMPDEST CALLDATASIZE ISZERO PUSH2 0x19 JUMPI PUSH1 0x0 DUP1 REVERT JUMPDEST STOP JUMPDEST PUSH1 0x0 CALLDATALOAD PUSH1 0xE0 SHR DUP1 PUSH4 0x3EDF914 EQ PUSH2 0x16A1 JUMPI DUP1 PUSH4 0x8242F12 EQ PUSH2 0x1453 JUMPI DUP1 PUSH4 0xB791430 EQ PUSH2 0x12F9 JUMPI DUP1 PUSH4 0x25A19F04 EQ PUSH2 0x11C6 JUMPI DUP1 PUSH4 0x2D56657D EQ PUSH2 0xF30 JUMPI DUP1 PUSH4 0x3612280F EQ PUSH2 0xCDD JUMPI DUP1 PUSH4 0x8DCBBC6F EQ PUSH2 0xC56 JUMPI DUP1 PUSH4 0xAF71F95C EQ PUSH2 0xB9C JUMPI DUP1 PUSH4 0xB3A2DF51 EQ PUSH2 0x299 JUMPI DUP1 PUSH4 0xB98079BC EQ PUSH2 0x176 JUMPI PUSH4 0xFFA548DD SUB PUSH2 0xE JUMPI CALLVALUE PUSH2 0x171 JUMPI PUSH1 0x80 CALLDATASIZE PUSH1 0x3 NOT ADD SLT PUSH2 0x171 JUMPI PUSH1 0x4 CALLDATALOAD PUSH32 0x893AC9C513B4380780F867C7B8BD044B0C9868AE211E7B5C6DAAA79C936E4DBE PUSH1 0x60 PUSH1 0x24 CALLDATALOAD PUSH1 0x44 CALLDATALOAD PUSH1 0x64 CALLDATALOAD SWAP1 PUSH2 0xEF PUSH1 0x1 DUP1 PUSH1 0xA0 SHL SUB PUSH1 0x0 SLOAD AND CALLER EQ PUSH2 0x1C67 JUMP JUMPDEST DUP6 PUSH1 0x0 MSTORE PUSH1 0x2 PUSH1 0x20 MSTORE PUSH2 0x10F PUSH1 0xFF PUSH1 0x8 PUSH1 0x40 PUSH1 0x0 KECCAK256 ADD SLOAD PUSH1 0x8 SHR AND PUSH2 0x1C18 JUMP JUMPDEST PUSH1 0x64 DUP4 LT ISZERO DUP1 PUSH2 0x166 JUMPI JUMPDEST DUP1 PUSH2 0x15B JUMPI JUMPDEST PUSH2 0x129 SWAP1 PUSH2 0x1D6D JUMP JUMPDEST DUP6 PUSH1 0x0 MSTORE PUSH1 0x2 PUSH1 0x20 MSTORE DUP2 PUSH1 0xB PUSH1 0x40 PUSH1 0x0 KECCAK256 DUP6 PUSH1 0x9 DUP3 ADD SSTORE DUP4 PUSH1 0xA DUP3 ADD SSTORE ADD SSTORE PUSH1 0x40 MLOAD SWAP3 DUP4 MSTORE PUSH1 0x20 DUP4 ADD MSTORE PUSH1 0x40 DUP3 ADD MSTORE LOG2 STOP JUMPDEST POP PUSH1 0x64 DUP3 LT ISZERO PUSH2 0x120 JUMP JUMPDEST POP PUSH1 0x64 DUP2 LT ISZERO PUSH2 0x11A JUMP JUMPDEST PUSH1 0x0 DUP1 REVERT JUMPDEST CALLVALUE PUSH2 0x171 JUMPI PUSH1 0x20 CALLDATASIZE PUSH1 0x3 NOT ADD SLT PUSH2 0x171 JUMPI PUSH2 0x18F PUSH2 0x1CF7 JUMP JUMPDEST POP PUSH1 0x4 CALLDATALOAD PUSH1 0x0 MSTORE PUSH1 0x2 PUSH1 0x20 MSTORE PUSH2 0x295 PUSH1 0x40 PUSH1 0x0 KECCAK256 PUSH1 0xE PUSH1 0x40 MLOAD SWAP2 PUSH2 0x1B2 DUP4 PUSH2 0x1970 JUMP JUMPDEST DUP1 SLOAD DUP4 MSTORE PUSH1 0x1 DUP2 ADD SLOAD PUSH1 0x20 DUP5 ADD MSTORE PUSH2 0x1CC PUSH1 0x2 DUP3 ADD PUSH2 0x19AD JUMP JUMPDEST PUSH1 0x40 DUP5 ADD MSTORE PUSH2 0x1DD PUSH1 0x3 DUP3 ADD PUSH2 0x19AD JUMP JUMPDEST PUSH1 0x60 DUP5 ADD MSTORE PUSH2 0x1EE PUSH1 0x4 DUP3 ADD PUSH2 0x19AD JUMP JUMPDEST PUSH1 0x80 DUP5 ADD MSTORE PUSH2 0x1FF PUSH1 0x5 DUP3 ADD PUSH2 0x19AD JUMP JUMPDEST PUSH1 0xA0 DUP5 ADD MSTORE PUSH2 0x210 PUSH1 0x6 DUP3 ADD PUSH2 0x19AD JUMP JUMPDEST PUSH1 0xC0 DUP5 ADD MSTORE PUSH2 0x221 PUSH1 0x7 DUP3 ADD PUSH2 0x19AD JUMP JUMPDEST PUSH1 0xE0 DUP5 ADD MSTORE PUSH1 0xFF PUSH1 0x8 DUP3 ADD SLOAD DUP2 DUP2 AND PUSH2 0x100 DUP7 ADD MSTORE PUSH1 0x8 SHR AND ISZERO ISZERO PUSH2 0x120 DUP5 ADD MSTORE PUSH1 0x9 DUP2 ADD SLOAD PUSH2 0x140 DUP5 ADD MSTORE PUSH1 0xA DUP2 ADD SLOAD PUSH2 0x160 DUP5 ADD MSTORE PUSH1 0xB DUP2 ADD SLOAD PUSH2 0x180 DUP5 ADD MSTORE PUSH1 0xC DUP2 ADD SLOAD PUSH2 0x1A0 DUP5 ADD MSTORE PUSH1 0xD DUP2 ADD SLOAD PUSH2 0x1C0 DUP5 ADD MSTORE ADD SLOAD PUSH2 0x1E0 DUP3 ADD MSTORE PUSH1 0x40 MLOAD SWAP2 DUP3 SWAP2 PUSH1 0x20 DUP4 MSTORE PUSH1 0x20 DUP4 ADD SWAP1 PUSH2 0x1A92 JUMP JUMPDEST SUB SWAP1 RETURN JUMPDEST CALLVALUE PUSH2 0x171 JUMPI PUSH2 0x140 CALLDATASIZE PUSH1 0x3 NOT ADD SLT PUSH2 0x171 JUMPI PUSH1 0x24 CALLDATALOAD PUSH1 0x1 PUSH1 0x1 PUSH1 0x40 SHL SUB DUP2 GT PUSH2 0x171 JUMPI PUSH2 0x2CA SWAP1 CALLDATASIZE SWAP1 PUSH1 0x4 ADD PUSH2 0x1BD1 JUMP JUMPDEST PUSH1 0x44 CALLDATALOAD PUSH1 0x1 PUSH1 0x1 PUSH1 0x40 SHL SUB DUP2 GT PUSH2 0x171 JUMPI PUSH2 0x2E9 SWAP1 CALLDATASIZE SWAP1 PUSH1 0x4 ADD PUSH2 0x1BD1 JUMP JUMPDEST PUSH1 0x64 CALLDATALOAD PUSH1 0x1 PUSH1 0x1 PUSH1 0x40 SHL SUB DUP2 GT PUSH2 0x171 JUMPI PUSH2 0x308 SWAP1 CALLDATASIZE SWAP1 PUSH1 0x4 ADD PUSH2 0x1BD1 JUMP JUMPDEST PUSH1 0x84 CALLDATALOAD PUSH1 0x1 PUSH1 0x1 PUSH1 0x40 SHL SUB DUP2 GT PUSH2 0x171 JUMPI PUSH2 0x327 SWAP1 CALLDATASIZE SWAP1 PUSH1 0x4 ADD PUSH2 0x1BD1 JUMP JUMPDEST PUSH1 0xA4 CALLDATALOAD PUSH1 0x1 PUSH1 0x1 PUSH1 0x40 SHL SUB DUP2 GT PUSH2 0x171 JUMPI PUSH2 0x346 SWAP1 CALLDATASIZE SWAP1 PUSH1 0x4 ADD PUSH2 0x1BD1 JUMP JUMPDEST SWAP1 PUSH1 0xC4 CALLDATALOAD PUSH1 0x1 PUSH1 0x1 PUSH1 0x40 SHL SUB DUP2 GT PUSH2 0x171 JUMPI PUSH2 0x366 SWAP1 CALLDATASIZE SWAP1 PUSH1 0x4 ADD PUSH2 0x1BD1 JUMP JUMPDEST SWAP3 PUSH2 0x37C PUSH1 0x1 DUP1 PUSH1 0xA0 SHL SUB PUSH1 0x0 SLOAD AND CALLER EQ PUSH2 0x1C67 JUMP JUMPDEST PUSH1 0x64 PUSH1 0xE4 CALLDATALOAD LT ISZERO DUP1 PUSH2 0xB8E JUMPI JUMPDEST DUP1 PUSH2 0xB80 JUMPI JUMPDEST PUSH2 0x398 SWAP1 PUSH2 0x1D6D JUMP JUMPDEST PUSH1 0x1 SLOAD SWAP5 PUSH1 0x40 MLOAD SWAP7 PUSH2 0x3A9 DUP9 PUSH2 0x1970 JUMP JUMPDEST DUP7 DUP9 MSTORE PUSH1 0x4 CALLDATALOAD PUSH1 0x20 DUP10 ADD MSTORE PUSH1 0x40 DUP9 ADD MSTORE PUSH1 0x60 DUP8 ADD MSTORE PUSH1 0x80 DUP7 ADD MSTORE PUSH1 0xA0 DUP6 ADD MSTORE PUSH1 0xC0 DUP5 ADD MSTORE PUSH1 0xE0 DUP4 ADD MSTORE PUSH1 0x0 PUSH2 0x100 DUP4 ADD MSTORE PUSH1 0x1 PUSH2 0x120 DUP4 ADD MSTORE PUSH1 0xE4 CALLDATALOAD PUSH2 0x140 DUP4 ADD MSTORE PUSH2 0x104 CALLDATALOAD PUSH2 0x160 DUP4 ADD MSTORE PUSH2 0x124 CALLDATALOAD PUSH2 0x180 DUP4 ADD MSTORE PUSH1 0x0 PUSH2 0x1A0 DUP4 ADD MSTORE PUSH1 0x0 PUSH2 0x1C0 DUP4 ADD MSTORE PUSH1 0x0 PUSH2 0x1E0 DUP4 ADD MSTORE PUSH1 0x0 MSTORE PUSH1 0x2 PUSH1 0x20 MSTORE PUSH1 0x40 PUSH1 0x0 KECCAK256 DUP2 MLOAD DUP2 SSTORE PUSH1 0x20 DUP3 ADD MLOAD PUSH1 0x1 DUP3 ADD SSTORE PUSH1 0x40 DUP3 ADD MLOAD SWAP2 DUP3 MLOAD PUSH1 0x1 PUSH1 0x1 PUSH1 0x40 SHL SUB DUP2 GT PUSH2 0x7AA JUMPI PUSH2 0x455 PUSH1 0x2 DUP5 ADD SLOAD PUSH2 0x191B JUMP JUMPDEST PUSH1 0x1F DUP2 GT PUSH2 0xB39 JUMPI JUMPDEST POP PUSH1 0x20 PUSH1 0x1F DUP3 GT PUSH1 0x1 EQ PUSH2 0xACB JUMPI DUP2 SWAP3 SWAP4 SWAP5 PUSH1 0x0 SWAP3 PUSH2 0xAC0 JUMPI JUMPDEST POP POP DUP2 PUSH1 0x1 SHL SWAP2 PUSH1 0x0 NOT SWAP1 PUSH1 0x3 SHL SHR NOT AND OR PUSH1 0x2 DUP4 ADD SSTORE JUMPDEST PUSH1 0x60 DUP2 ADD MLOAD SWAP2 DUP3 MLOAD PUSH1 0x1 PUSH1 0x1 PUSH1 0x40 SHL SUB DUP2 GT PUSH2 0x7AA JUMPI PUSH2 0x4B3 PUSH1 0x3 DUP4 ADD SLOAD PUSH2 0x191B JUMP JUMPDEST PUSH1 0x1F DUP2 GT PUSH2 0xA79 JUMPI JUMPDEST POP PUSH1 0x20 PUSH1 0x1F DUP3 GT PUSH1 0x1 EQ PUSH2 0xA0B JUMPI DUP2 SWAP3 SWAP4 SWAP5 PUSH1 0x0 SWAP3 PUSH2 0xA00 JUMPI JUMPDEST POP POP DUP2 PUSH1 0x1 SHL SWAP2 PUSH1 0x0 NOT SWAP1 PUSH1 0x3 SHL SHR NOT AND OR PUSH1 0x3 DUP3 ADD SSTORE JUMPDEST PUSH1 0x80 DUP3 ADD MLOAD SWAP2 DUP3 MLOAD PUSH1 0x1 PUSH1 0x1 PUSH1 0x40 SHL SUB DUP2 GT PUSH2 0x7AA JUMPI PUSH2 0x511 PUSH1 0x4 DUP5 ADD SLOAD PUSH2 0x191B JUMP JUMPDEST PUSH1 0x1F DUP2 GT PUSH2 0x9B9 JUMPI JUMPDEST POP PUSH1 0x20 PUSH1 0x1F DUP3 GT PUSH1 0x1 EQ PUSH2 0x94B JUMPI DUP2 SWAP3 SWAP4 SWAP5 PUSH1 0x0 SWAP3 PUSH2 0x940 JUMPI JUMPDEST POP POP DUP2 PUSH1 0x1 SHL SWAP2 PUSH1 0x0 NOT SWAP1 PUSH1 0x3 SHL SHR NOT AND OR PUSH1 0x4 DUP4 ADD SSTORE JUMPDEST PUSH1 0xA0 DUP2 ADD MLOAD SWAP2 DUP3 MLOAD PUSH1 0x1 PUSH1 0x1 PUSH1 0x40 SHL SUB DUP2 GT PUSH2 0x7AA JUMPI PUSH2 0x56F PUSH1 0x5 DUP4 ADD SLOAD PUSH2 0x191B JUMP JUMPDEST PUSH1 0x1F DUP2 GT PUSH2 0x8F9 JUMPI JUMPDEST POP PUSH1 0x20 PUSH1 0x1F DUP3 GT PUSH1 0x1 EQ PUSH2 0x88B JUMPI DUP2 SWAP3 SWAP4 SWAP5 PUSH1 0x0 SWAP3 PUSH2 0x880 JUMPI JUMPDEST POP POP DUP2 PUSH1 0x1 SHL SWAP2 PUSH1 0x0 NOT SWAP1 PUSH1 0x3 SHL SHR NOT AND OR PUSH1 0x5 DUP3 ADD SSTORE JUMPDEST PUSH1 0xC0 DUP3 ADD MLOAD SWAP2 DUP3 MLOAD PUSH1 0x1 PUSH1 0x1 PUSH1 0x40 SHL SUB DUP2 GT PUSH2 0x7AA JUMPI PUSH2 0x5CD PUSH1 0x6 DUP5 ADD SLOAD PUSH2 0x191B JUMP JUMPDEST PUSH1 0x1F DUP2 GT PUSH2 0x839 JUMPI JUMPDEST POP PUSH1 0x20 PUSH1 0x1F DUP3 GT PUSH1 0x1 EQ PUSH2 0x7CB JUMPI DUP2 SWAP3 SWAP4 SWAP5 PUSH1 0x0 SWAP3 PUSH2 0x7C0 JUMPI JUMPDEST POP POP DUP2 PUSH1 0x1 SHL SWAP2 PUSH1 0x0 NOT SWAP1 PUSH1 0x3 SHL SHR NOT AND OR PUSH1 0x6 DUP4 ADD SSTORE JUMPDEST PUSH1 0xE0 DUP2 ADD MLOAD DUP1 MLOAD SWAP1 PUSH1 0x1 PUSH1 0x1 PUSH1 0x40 SHL SUB DUP3 GT PUSH2 0x7AA JUMPI PUSH2 0x62B PUSH1 0x7 DUP6 ADD SLOAD PUSH2 0x191B JUMP JUMPDEST PUSH1 0x1F DUP2 GT PUSH2 0x763 JUMPI JUMPDEST POP PUSH1 0x20 SWAP1 PUSH1 0x1F DUP4 GT PUSH1 0x1 EQ PUSH2 0x6ED JUMPI SWAP2 DUP1 PUSH1 0xE SWAP5 SWAP3 PUSH2 0x1E0 SWAP5 PUSH1 0x0 SWAP3 PUSH2 0x6E2 JUMPI JUMPDEST POP POP DUP2 PUSH1 0x1 SHL SWAP2 PUSH1 0x0 NOT SWAP1 PUSH1 0x3 SHL SHR NOT AND OR PUSH1 0x7 DUP6 ADD SSTORE JUMPDEST PUSH1 0x8 DUP5 ADD PUSH1 0xFF PUSH2 0x100 DUP4 ADD MLOAD AND DUP2 SLOAD SWAP1 PUSH2 0xFF00 PUSH2 0x120 DUP6 ADD MLOAD ISZERO ISZERO PUSH1 0x8 SHL AND SWAP2 PUSH2 0xFFFF NOT AND OR OR SWAP1 SSTORE PUSH2 0x140 DUP2 ADD MLOAD PUSH1 0x9 DUP6 ADD SSTORE PUSH2 0x160 DUP2 ADD MLOAD PUSH1 0xA DUP6 ADD SSTORE PUSH2 0x180 DUP2 ADD MLOAD PUSH1 0xB DUP6 ADD SSTORE PUSH2 0x1A0 DUP2 ADD MLOAD PUSH1 0xC DUP6 ADD SSTORE PUSH2 0x1C0 DUP2 ADD MLOAD PUSH1 0xD DUP6 ADD SSTORE ADD MLOAD SWAP2 ADD SSTORE PUSH2 0x6DD PUSH1 0x1 SLOAD PUSH2 0x1CBD JUMP JUMPDEST PUSH1 0x1 SSTORE STOP JUMPDEST ADD MLOAD SWAP1 POP DUP7 DUP1 PUSH2 0x655 JUMP JUMPDEST SWAP1 PUSH1 0x7 DUP6 ADD PUSH1 0x0 MSTORE PUSH1 0x20 PUSH1 0x0 KECCAK256 SWAP2 PUSH1 0x0 JUMPDEST PUSH1 0x1F NOT DUP6 AND DUP2 LT PUSH2 0x74B JUMPI POP SWAP3 PUSH1 0xE SWAP5 SWAP3 PUSH1 0x1 SWAP3 PUSH2 0x1E0 SWAP6 DUP4 PUSH1 0x1F NOT DUP2 AND LT PUSH2 0x732 JUMPI JUMPDEST POP POP POP DUP2 SHL ADD PUSH1 0x7 DUP6 ADD SSTORE PUSH2 0x66D JUMP JUMPDEST ADD MLOAD PUSH1 0x0 NOT PUSH1 0xF8 DUP5 PUSH1 0x3 SHL AND SHR NOT AND SWAP1 SSTORE DUP7 DUP1 DUP1 PUSH2 0x722 JUMP JUMPDEST SWAP2 SWAP3 PUSH1 0x20 PUSH1 0x1 DUP2 SWAP3 DUP7 DUP6 ADD MLOAD DUP2 SSTORE ADD SWAP5 ADD SWAP3 ADD PUSH2 0x6FE JUMP JUMPDEST PUSH1 0x7 DUP6 ADD PUSH1 0x0 MSTORE PUSH1 0x20 PUSH1 0x0 KECCAK256 PUSH1 0x1F DUP5 ADD PUSH1 0x5 SHR DUP2 ADD PUSH1 0x20 DUP6 LT PUSH2 0x7A3 JUMPI JUMPDEST PUSH1 0x1F DUP4 ADD PUSH1 0x5 SHR DUP3 ADD DUP2 LT PUSH2 0x797 JUMPI POP POP PUSH2 0x634 JUMP JUMPDEST PUSH1 0x0 DUP2 SSTORE PUSH1 0x1 ADD PUSH2 0x781 JUMP JUMPDEST POP DUP1 PUSH2 0x781 JUMP JUMPDEST PUSH4 0x4E487B71 PUSH1 0xE0 SHL PUSH1 0x0 MSTORE PUSH1 0x41 PUSH1 0x4 MSTORE PUSH1 0x24 PUSH1 0x0 REVERT JUMPDEST ADD MLOAD SWAP1 POP DUP5 DUP1 PUSH2 0x5F0 JUMP JUMPDEST PUSH1 0x6 DUP5 ADD PUSH1 0x0 MSTORE PUSH1 0x20 PUSH1 0x0 KECCAK256 SWAP1 PUSH1 0x0 JUMPDEST PUSH1 0x1F NOT DUP5 AND DUP2 LT PUSH2 0x821 JUMPI POP PUSH1 0x1 SWAP4 SWAP5 SWAP6 DUP4 PUSH1 0x1F NOT DUP2 AND LT PUSH2 0x808 JUMPI JUMPDEST POP POP POP DUP2 SHL ADD PUSH1 0x6 DUP4 ADD SSTORE PUSH2 0x608 JUMP JUMPDEST ADD MLOAD PUSH1 0x0 NOT PUSH1 0xF8 DUP5 PUSH1 0x3 SHL AND SHR NOT AND SWAP1 SSTORE DUP5 DUP1 DUP1 PUSH2 0x7F8 JUMP JUMPDEST SWAP1 SWAP2 PUSH1 0x20 PUSH1 0x1 DUP2 SWAP3 DUP6 DUP11 ADD MLOAD DUP2 SSTORE ADD SWAP4 ADD SWAP2 ADD PUSH2 0x7DB JUMP JUMPDEST PUSH1 0x6 DUP5 ADD PUSH1 0x0 MSTORE PUSH1 0x20 PUSH1 0x0 KECCAK256 PUSH1 0x1F DUP4 ADD PUSH1 0x5 SHR DUP2 ADD PUSH1 0x20 DUP5 LT PUSH2 0x879 JUMPI JUMPDEST PUSH1 0x1F DUP4 ADD PUSH1 0x5 SHR DUP3 ADD DUP2 LT PUSH2 0x86D JUMPI POP POP PUSH2 0x5D6 JUMP JUMPDEST PUSH1 0x0 DUP2 SSTORE PUSH1 0x1 ADD PUSH2 0x857 JUMP JUMPDEST POP DUP1 PUSH2 0x857 JUMP JUMPDEST ADD MLOAD SWAP1 POP DUP5 DUP1 PUSH2 0x592 JUMP JUMPDEST PUSH1 0x5 DUP4 ADD PUSH1 0x0 MSTORE PUSH1 0x20 PUSH1 0x0 KECCAK256 SWAP1 PUSH1 0x0 JUMPDEST PUSH1 0x1F NOT DUP5 AND DUP2 LT PUSH2 0x8E1 JUMPI POP PUSH1 0x1 SWAP4 SWAP5 SWAP6 DUP4 PUSH1 0x1F NOT DUP2 AND LT PUSH2 0x8C8 JUMPI JUMPDEST POP POP POP DUP2 SHL ADD PUSH1 0x5 DUP3 ADD SSTORE PUSH2 0x5AA JUMP JUMPDEST ADD MLOAD PUSH1 0x0 NOT PUSH1 0xF8 DUP5 PUSH1 0x3 SHL AND SHR NOT AND SWAP1 SSTORE DUP5 DUP1 DUP1 PUSH2 0x8B8 JUMP JUMPDEST SWAP1 SWAP2 PUSH1 0x20 PUSH1 0x1 DUP2 SWAP3 DUP6 DUP11 ADD MLOAD DUP2 SSTORE ADD SWAP4 ADD SWAP2 ADD PUSH2 0x89B JUMP JUMPDEST PUSH1 0x5 DUP4 ADD PUSH1 0x0 MSTORE PUSH1 0x20 PUSH1 0x0 KECCAK256 PUSH1 0x1F DUP4 ADD PUSH1 0x5 SHR DUP2 ADD PUSH1 0x20 DUP5 LT PUSH2 0x939 JUMPI JUMPDEST PUSH1 0x1F DUP4 ADD PUSH1 0x5 SHR DUP3 ADD DUP2 LT PUSH2 0x92D JUMPI POP POP PUSH2 0x578 JUMP JUMPDEST PUSH1 0x0 DUP2 SSTORE PUSH1 0x1 ADD PUSH2 0x917 JUMP JUMPDEST POP DUP1 PUSH2 0x917 JUMP JUMPDEST ADD MLOAD SWAP1 POP DUP5 DUP1 PUSH2 0x534 JUMP JUMPDEST PUSH1 0x4 DUP5 ADD PUSH1 0x0 MSTORE PUSH1 0x20 PUSH1 0x0 KECCAK256 SWAP1 PUSH1 0x0 JUMPDEST PUSH1 0x1F NOT DUP5 AND DUP2 LT PUSH2 0x9A1 JUMPI POP PUSH1 0x1 SWAP4 SWAP5 SWAP6 DUP4 PUSH1 0x1F NOT DUP2 AND LT PUSH2 0x988 JUMPI JUMPDEST POP POP POP DUP2 SHL ADD PUSH1 0x4 DUP4 ADD SSTORE PUSH2 0x54C JUMP JUMPDEST ADD MLOAD PUSH1 0x0 NOT PUSH1 0xF8 DUP5 PUSH1 0x3 SHL AND SHR NOT AND SWAP1 SSTORE DUP5 DUP1 DUP1 PUSH2 0x978 JUMP JUMPDEST SWAP1 SWAP2 PUSH1 0x20 PUSH1 0x1 DUP2 SWAP3 DUP6 DUP11 ADD MLOAD DUP2 SSTORE ADD SWAP4 ADD SWAP2 ADD PUSH2 0x95B JUMP JUMPDEST PUSH1 0x4 DUP5 ADD PUSH1 0x0 MSTORE PUSH1 0x20 PUSH1 0x0 KECCAK256 PUSH1 0x1F DUP4 ADD PUSH1 0x5 SHR DUP2 ADD PUSH1 0x20 DUP5 LT PUSH2 0x9F9 JUMPI JUMPDEST PUSH1 0x1F DUP4 ADD PUSH1 0x5 SHR DUP3 ADD DUP2 LT PUSH2 0x9ED JUMPI POP POP PUSH2 0x51A JUMP JUMPDEST PUSH1 0x0 DUP2 SSTORE PUSH1 0x1 ADD PUSH2 0x9D7 JUMP JUMPDEST POP DUP1 PUSH2 0x9D7 JUMP JUMPDEST ADD MLOAD SWAP1 POP DUP5 DUP1 PUSH2 0x4D6 JUMP JUMPDEST PUSH1 0x3 DUP4 ADD PUSH1 0x0 MSTORE PUSH1 0x20 PUSH1 0x0 KECCAK256 SWAP1 PUSH1 0x0 JUMPDEST PUSH1 0x1F NOT DUP5 AND DUP2 LT PUSH2 0xA61 JUMPI POP PUSH1 0x1 SWAP4 SWAP5 SWAP6 DUP4 PUSH1 0x1F NOT DUP2 AND LT PUSH2 0xA48 JUMPI JUMPDEST POP POP POP DUP2 SHL ADD PUSH1 0x3 DUP3 ADD SSTORE PUSH2 0x4EE JUMP JUMPDEST ADD MLOAD PUSH1 0x0 NOT PUSH1 0xF8 DUP5 PUSH1 0x3 SHL AND SHR NOT AND SWAP1 SSTORE DUP5 DUP1 DUP1 PUSH2 0xA38 JUMP JUMPDEST SWAP1 SWAP2 PUSH1 0x20 PUSH1 0x1 DUP2 SWAP3 DUP6 DUP11 ADD MLOAD DUP2 SSTORE ADD SWAP4 ADD SWAP2 ADD PUSH2 0xA1B JUMP JUMPDEST PUSH1 0x3 DUP4 ADD PUSH1 0x0 MSTORE PUSH1 0x20 PUSH1 0x0 KECCAK256 PUSH1 0x1F DUP4 ADD PUSH1 0x5 SHR DUP2 ADD PUSH1 0x20 DUP5 LT PUSH2 0xAB9 JUMPI JUMPDEST PUSH1 0x1F DUP4 ADD PUSH1 0x5 SHR DUP3 ADD DUP2 LT PUSH2 0xAAD JUMPI POP POP PUSH2 0x4BC JUMP JUMPDEST PUSH1 0x0 DUP2 SSTORE PUSH1 0x1 ADD PUSH2 0xA97 JUMP JUMPDEST POP DUP1 PUSH2 0xA97 JUMP JUMPDEST ADD MLOAD SWAP1 POP DUP5 DUP1 PUSH2 0x478 JUMP JUMPDEST PUSH1 0x2 DUP5 ADD PUSH1 0x0 MSTORE PUSH1 0x20 PUSH1 0x0 KECCAK256 SWAP1 PUSH1 0x0 JUMPDEST PUSH1 0x1F NOT DUP5 AND DUP2 LT PUSH2 0xB21 JUMPI POP PUSH1 0x1 SWAP4 SWAP5 SWAP6 DUP4 PUSH1 0x1F NOT DUP2 AND LT PUSH2 0xB08 JUMPI JUMPDEST POP POP POP DUP2 SHL ADD PUSH1 0x2 DUP4 ADD SSTORE PUSH2 0x490 JUMP JUMPDEST ADD MLOAD PUSH1 0x0 NOT PUSH1 0xF8 DUP5 PUSH1 0x3 SHL AND SHR NOT AND SWAP1 SSTORE DUP5 DUP1 DUP1 PUSH2 0xAF8 JUMP JUMPDEST SWAP1 SWAP2 PUSH1 0x20 PUSH1 0x1 DUP2 SWAP3 DUP6 DUP11 ADD MLOAD DUP2 SSTORE ADD SWAP4 ADD SWAP2 ADD PUSH2 0xADB JUMP JUMPDEST PUSH1 0x2 DUP5 ADD PUSH1 0x0 MSTORE PUSH1 0x20 PUSH1 0x0 KECCAK256 PUSH1 0x1F DUP4 ADD PUSH1 0x5 SHR DUP2 ADD PUSH1 0x20 DUP5 LT PUSH2 0xB79 JUMPI JUMPDEST PUSH1 0x1F DUP4 ADD PUSH1 0x5 SHR DUP3 ADD DUP2 LT PUSH2 0xB6D JUMPI POP POP PUSH2 0x45E JUMP JUMPDEST PUSH1 0x0 DUP2 SSTORE PUSH1 0x1 ADD PUSH2 0xB57 JUMP JUMPDEST POP DUP1 PUSH2 0xB57 JUMP JUMPDEST POP PUSH1 0x64 PUSH2 0x124 CALLDATALOAD LT ISZERO PUSH2 0x38F JUMP JUMPDEST POP PUSH1 0x64 PUSH2 0x104 CALLDATALOAD LT ISZERO PUSH2 0x389 JUMP JUMPDEST CALLVALUE PUSH2 0x171 JUMPI PUSH1 0xFF PUSH2 0xBAC CALLDATASIZE PUSH2 0x18FB JUMP JUMPDEST PUSH2 0xBC4 PUSH1 0x1 DUP1 PUSH1 0xA0 SWAP6 SWAP5 SWAP6 SHL SUB PUSH1 0x0 SLOAD AND CALLER EQ PUSH2 0x1C67 JUMP JUMPDEST DUP3 PUSH1 0x0 MSTORE PUSH1 0x2 PUSH1 0x20 MSTORE PUSH2 0xBE3 DUP3 PUSH1 0x8 PUSH1 0x40 PUSH1 0x0 KECCAK256 ADD SLOAD PUSH1 0x8 SHR AND PUSH2 0x1C18 JUMP JUMPDEST AND SWAP1 PUSH1 0x1 DUP3 LT ISZERO DUP1 PUSH2 0xC4B JUMPI JUMPDEST ISZERO PUSH2 0xC15 JUMPI PUSH1 0x0 MSTORE PUSH1 0x2 PUSH1 0x20 MSTORE PUSH1 0x8 PUSH1 0x40 PUSH1 0x0 KECCAK256 ADD SWAP1 PUSH2 0xFFFF NOT DUP3 SLOAD AND OR SWAP1 SSTORE PUSH1 0x0 DUP1 RETURN JUMPDEST PUSH1 0x40 MLOAD PUSH3 0x461BCD PUSH1 0xE5 SHL DUP2 MSTORE PUSH1 0x20 PUSH1 0x4 DUP3 ADD MSTORE PUSH1 0xE PUSH1 0x24 DUP3 ADD MSTORE PUSH14 0x125B9D985B1A59081C995CDD5B1D PUSH1 0x92 SHL PUSH1 0x44 DUP3 ADD MSTORE PUSH1 0x64 SWAP1 REVERT JUMPDEST POP PUSH1 0x3 DUP3 GT ISZERO PUSH2 0xBF0 JUMP JUMPDEST CALLVALUE PUSH2 0x171 JUMPI PUSH1 0x40 CALLDATASIZE PUSH1 0x3 NOT ADD SLT PUSH2 0x171 JUMPI PUSH1 0x24 CALLDATALOAD PUSH1 0x4 CALLDATALOAD PUSH1 0x0 MSTORE PUSH1 0x3 PUSH1 0x20 MSTORE PUSH1 0x40 PUSH1 0x0 KECCAK256 DUP1 SLOAD DUP3 LT ISZERO PUSH2 0x171 JUMPI PUSH1 0xC0 SWAP2 PUSH2 0xC8F SWAP2 PUSH2 0x1B84 JUMP JUMPDEST POP DUP1 SLOAD SWAP1 PUSH1 0x1 DUP2 ADD SLOAD SWAP1 PUSH1 0x2 DUP2 ADD SLOAD PUSH1 0xFF DUP1 PUSH1 0x4 PUSH1 0x3 DUP6 ADD SLOAD SWAP5 ADD SLOAD AND SWAP4 PUSH1 0x40 MLOAD SWAP6 DUP7 MSTORE PUSH1 0x1 DUP1 PUSH1 0xA0 SHL SUB DUP2 AND PUSH1 0x20 DUP8 ADD MSTORE PUSH1 0xA0 SHR AND PUSH1 0x40 DUP6 ADD MSTORE PUSH1 0x60 DUP5 ADD MSTORE PUSH1 0x80 DUP4 ADD MSTORE ISZERO ISZERO PUSH1 0xA0 DUP3 ADD MSTORE RETURN JUMPDEST CALLVALUE PUSH2 0x171 JUMPI PUSH1 0x0 CALLDATASIZE PUSH1 0x3 NOT ADD SLT PUSH2 0x171 JUMPI PUSH1 0x0 DUP1 PUSH1 0x1 DUP1 SLOAD SWAP2 JUMPDEST DUP3 DUP2 LT PUSH2 0xEF6 JUMPI POP PUSH2 0xD21 PUSH2 0xD0B DUP5 PUSH2 0x1CCC JUMP JUMPDEST SWAP4 PUSH2 0xD19 PUSH1 0x40 MLOAD SWAP6 DUP7 PUSH2 0x198C JUMP JUMPDEST DUP1 DUP6 MSTORE PUSH2 0x1CCC JUMP JUMPDEST PUSH1 0x20 SWAP3 SWAP1 PUSH1 0x1F NOT ADD PUSH1 0x0 JUMPDEST DUP2 DUP2 LT PUSH2 0xEDA JUMPI POP POP PUSH1 0x0 DUP1 JUMPDEST DUP3 DUP2 LT PUSH2 0xDA2 JUMPI POP POP POP PUSH1 0x40 MLOAD SWAP2 DUP1 DUP4 ADD DUP2 DUP5 MSTORE DUP5 MLOAD DUP1 SWAP2 MSTORE PUSH1 0x40 DUP5 ADD SWAP2 DUP1 PUSH1 0x40 DUP4 PUSH1 0x5 SHL DUP8 ADD ADD SWAP7 ADD SWAP3 PUSH1 0x0 SWAP1 JUMPDEST DUP4 DUP3 LT PUSH2 0xD75 JUMPI DUP7 DUP9 SUB DUP8 RETURN JUMPDEST SWAP1 SWAP2 SWAP3 SWAP4 SWAP5 DUP4 DUP1 PUSH2 0xD91 DUP4 SWAP11 PUSH1 0x3F NOT DUP12 DUP3 SUB ADD DUP7 MSTORE DUP10 MLOAD PUSH2 0x1A92 JUMP JUMPDEST SWAP10 SWAP8 ADD SWAP6 SWAP5 SWAP4 SWAP2 SWAP1 SWAP2 ADD SWAP2 ADD PUSH2 0xD68 JUMP JUMPDEST SWAP3 DUP4 DUP2 SWAP7 SWAP5 PUSH1 0x0 MSTORE DUP6 PUSH1 0x2 DUP1 DUP3 MSTORE PUSH1 0x40 PUSH1 0x0 KECCAK256 SWAP1 PUSH1 0x8 DUP1 DUP4 ADD SLOAD DUP1 SWAP2 PUSH1 0xFF SWAP3 DUP4 SWAP2 SHR AND SWAP3 DUP4 PUSH2 0xDDB JUMPI JUMPDEST POP POP POP POP POP POP ADD SWAP5 SWAP3 SWAP5 PUSH2 0xD39 JUMP JUMPDEST SWAP2 PUSH1 0xE SWAP4 SWAP2 PUSH2 0xE0B PUSH2 0xECE SWAP9 SWAP11 SWAP8 SWAP7 SWAP5 PUSH1 0x40 MLOAD SWAP8 PUSH2 0xDF8 DUP10 PUSH2 0x1970 JUMP JUMPDEST DUP7 SLOAD DUP10 MSTORE DUP12 DUP8 ADD SLOAD SWAP1 DUP10 ADD MSTORE DUP6 ADD PUSH2 0x19AD JUMP JUMPDEST PUSH1 0x40 DUP8 ADD MSTORE PUSH2 0xE1C PUSH1 0x3 DUP6 ADD PUSH2 0x19AD JUMP JUMPDEST PUSH1 0x60 DUP8 ADD MSTORE PUSH2 0xE2D PUSH1 0x4 DUP6 ADD PUSH2 0x19AD JUMP JUMPDEST PUSH1 0x80 DUP8 ADD MSTORE PUSH2 0xE3E PUSH1 0x5 DUP6 ADD PUSH2 0x19AD JUMP JUMPDEST PUSH1 0xA0 DUP8 ADD MSTORE PUSH2 0xE4F PUSH1 0x6 DUP6 ADD PUSH2 0x19AD JUMP JUMPDEST PUSH1 0xC0 DUP8 ADD MSTORE PUSH2 0xE60 PUSH1 0x7 DUP6 ADD PUSH2 0x19AD JUMP JUMPDEST PUSH1 0xE0 DUP8 ADD MSTORE AND PUSH2 0x100 DUP6 ADD MSTORE ISZERO ISZERO PUSH2 0x120 DUP5 ADD MSTORE PUSH1 0x9 DUP2 ADD SLOAD PUSH2 0x140 DUP5 ADD MSTORE PUSH1 0xA DUP2 ADD SLOAD PUSH2 0x160 DUP5 ADD MSTORE PUSH1 0xB DUP2 ADD SLOAD PUSH2 0x180 DUP5 ADD MSTORE PUSH1 0xC DUP2 ADD SLOAD PUSH2 0x1A0 DUP5 ADD MSTORE PUSH1 0xD DUP2 ADD SLOAD PUSH2 0x1C0 DUP5 ADD MSTORE ADD SLOAD PUSH2 0x1E0 DUP3 ADD MSTORE PUSH2 0xEBD DUP3 DUP9 PUSH2 0x1CE3 JUMP JUMPDEST MSTORE PUSH2 0xEC8 DUP2 DUP8 PUSH2 0x1CE3 JUMP JUMPDEST POP PUSH2 0x1CBD JUMP JUMPDEST SWAP2 DUP6 DUP9 DUP1 DUP1 DUP1 DUP1 PUSH2 0xDCC JUMP JUMPDEST DUP5 SWAP1 PUSH2 0xEE7 SWAP7 SWAP5 SWAP7 PUSH2 0x1CF7 JUMP JUMPDEST DUP3 DUP3 DUP8 ADD ADD MSTORE ADD SWAP5 SWAP3 SWAP5 PUSH2 0xD2C JUMP JUMPDEST SWAP1 DUP2 DUP2 SWAP5 SWAP3 PUSH1 0x0 MSTORE PUSH1 0x2 PUSH1 0x20 MSTORE PUSH1 0xFF PUSH1 0x8 DUP1 PUSH1 0x40 PUSH1 0x0 KECCAK256 ADD SLOAD SWAP1 SHR AND PUSH2 0xF20 JUMPI JUMPDEST ADD SWAP3 SWAP1 SWAP3 PUSH2 0xCF7 JUMP JUMPDEST SWAP2 PUSH2 0xF2A SWAP1 PUSH2 0x1CBD JUMP JUMPDEST SWAP2 PUSH2 0xF17 JUMP JUMPDEST CALLVALUE PUSH2 0x171 JUMPI PUSH1 0x20 DUP1 PUSH1 0x3 NOT CALLDATASIZE ADD SLT PUSH2 0x171 JUMPI PUSH1 0x4 CALLDATALOAD PUSH1 0x1 PUSH1 0x1 PUSH1 0xA0 SHL SUB DUP2 DUP2 AND SWAP3 SWAP2 DUP4 SWAP1 SUB PUSH2 0x171 JUMPI SWAP2 PUSH1 0x0 SWAP3 PUSH1 0x0 PUSH1 0x1 SWAP3 DUP4 SLOAD SWAP2 JUMPDEST DUP3 DUP2 LT PUSH2 0x115B JUMPI POP PUSH2 0xF90 PUSH2 0xF7A DUP8 PUSH2 0x1CCC JUMP JUMPDEST SWAP7 PUSH2 0xF88 PUSH1 0x40 MLOAD SWAP9 DUP10 PUSH2 0x198C JUMP JUMPDEST DUP1 DUP9 MSTORE PUSH2 0x1CCC JUMP JUMPDEST PUSH1 0x1F NOT ADD PUSH1 0x0 JUMPDEST DUP2 DUP2 LT PUSH2 0x1115 JUMPI POP POP PUSH1 0x0 SWAP1 PUSH1 0x0 JUMPDEST DUP4 DUP2 LT PUSH2 0x102A JUMPI POP POP POP POP PUSH1 0x40 MLOAD SWAP3 DUP1 DUP5 ADD SWAP1 DUP1 DUP6 MSTORE DUP6 MLOAD DUP1 SWAP3 MSTORE DUP1 PUSH1 0x40 DUP7 ADD SWAP7 ADD SWAP3 PUSH1 0x0 SWAP1 JUMPDEST DUP4 DUP3 LT PUSH2 0xFDA JUMPI DUP7 DUP9 SUB DUP8 RETURN JUMPDEST DUP5 MLOAD DUP1 MLOAD DUP10 MSTORE DUP4 DUP2 ADD MLOAD DUP3 AND DUP5 DUP11 ADD MSTORE PUSH1 0x40 DUP1 DUP3 ADD MLOAD PUSH1 0xFF AND SWAP1 DUP11 ADD MSTORE PUSH1 0x60 DUP1 DUP3 ADD MLOAD SWAP1 DUP11 ADD MSTORE PUSH1 0x80 DUP1 DUP3 ADD MLOAD SWAP1 DUP11 ADD MSTORE PUSH1 0xA0 SWAP1 DUP2 ADD MLOAD ISZERO ISZERO SWAP1 DUP10 ADD MSTORE PUSH1 0xC0 SWAP1 SWAP8 ADD SWAP7 SWAP4 DUP3 ADD SWAP4 SWAP1 DUP6 ADD SWAP1 PUSH2 0xFCD JUMP JUMPDEST SWAP1 DUP6 SWAP8 SWAP6 SWAP3 SWAP2 DUP4 DUP1 PUSH1 0x0 SWAP1 JUMPDEST PUSH2 0x1049 JUMPI JUMPDEST POP ADD SWAP1 SWAP2 SWAP3 POP SWAP7 SWAP5 SWAP7 PUSH2 0xFA6 JUMP JUMPDEST DUP3 PUSH1 0x0 MSTORE DUP10 DUP9 PUSH1 0x3 DUP1 DUP4 MSTORE DUP7 PUSH1 0x40 PUSH1 0x0 KECCAK256 DUP1 SLOAD DUP7 LT ISZERO PUSH2 0x110B JUMPI DUP7 PUSH2 0x106F DUP8 DUP7 SWAP4 PUSH2 0x1B84 JUMP JUMPDEST POP ADD SLOAD AND EQ PUSH2 0x1084 JUMPI JUMPDEST POP POP POP DUP2 ADD DUP2 PUSH2 0x1036 JUMP JUMPDEST SWAP2 DUP5 SWAP4 SWAP8 SWAP2 PUSH2 0x1100 SWAP4 DUP8 PUSH1 0x0 MSTORE DUP1 DUP4 MSTORE PUSH1 0x4 PUSH2 0x10A4 DUP12 PUSH1 0x40 PUSH1 0x0 KECCAK256 PUSH2 0x1B84 JUMP JUMPDEST POP PUSH1 0x40 MLOAD SWAP5 PUSH2 0x10B2 DUP7 PUSH2 0x1955 JUMP JUMPDEST DUP2 SLOAD DUP7 MSTORE DUP9 DUP3 ADD SLOAD SWAP5 DUP6 AND SWAP1 DUP7 ADD MSTORE PUSH1 0xFF SWAP3 DUP4 PUSH1 0xA0 SWAP6 DUP7 SHR AND PUSH1 0x40 DUP8 ADD MSTORE PUSH1 0x2 DUP3 ADD SLOAD PUSH1 0x60 DUP8 ADD MSTORE DUP2 ADD SLOAD PUSH1 0x80 DUP7 ADD MSTORE ADD SLOAD AND ISZERO ISZERO SWAP1 DUP3 ADD MSTORE PUSH2 0x10F5 DUP3 DUP14 PUSH2 0x1CE3 JUMP JUMPDEST MSTORE PUSH2 0xEC8 DUP2 DUP13 PUSH2 0x1CE3 JUMP JUMPDEST SWAP5 SWAP1 POP DUP10 DUP9 DUP14 PUSH2 0x1079 JUMP JUMPDEST POP POP POP POP POP PUSH2 0x103B JUMP JUMPDEST DUP7 SWAP1 PUSH1 0x40 SWAP9 SWAP7 SWAP9 MLOAD PUSH2 0x1126 DUP2 PUSH2 0x1955 JUMP JUMPDEST PUSH1 0x0 DUP2 MSTORE PUSH1 0x0 DUP4 DUP3 ADD MSTORE PUSH1 0x0 PUSH1 0x40 DUP3 ADD MSTORE PUSH1 0x0 PUSH1 0x60 DUP3 ADD MSTORE PUSH1 0x0 PUSH1 0x80 DUP3 ADD MSTORE PUSH1 0x0 PUSH1 0xA0 DUP3 ADD MSTORE DUP3 DUP3 DUP10 ADD ADD MSTORE ADD SWAP7 SWAP5 SWAP7 PUSH2 0xF97 JUMP JUMPDEST SWAP4 DUP1 SWAP7 SWAP5 DUP2 PUSH1 0x0 SWAP1 JUMPDEST PUSH2 0x1173 JUMPI JUMPDEST POP ADD SWAP6 SWAP4 SWAP6 PUSH2 0xF66 JUMP JUMPDEST DUP2 PUSH1 0x0 MSTORE PUSH1 0x3 DUP9 MSTORE DUP4 DUP7 DUP5 PUSH1 0x40 PUSH1 0x0 KECCAK256 DUP1 SLOAD DUP6 LT ISZERO PUSH2 0x11BD JUMPI DUP5 PUSH2 0x1196 SWAP2 PUSH2 0x1B84 JUMP JUMPDEST POP ADD SLOAD AND EQ PUSH2 0x11A8 JUMPI JUMPDEST DUP3 ADD DUP3 PUSH2 0x1164 JUMP JUMPDEST SWAP6 DUP3 PUSH2 0x11B4 DUP2 SWAP3 PUSH2 0x1CBD JUMP JUMPDEST SWAP8 SWAP2 POP POP PUSH2 0x11A0 JUMP JUMPDEST POP POP POP POP PUSH2 0x1169 JUMP JUMPDEST CALLVALUE PUSH2 0x171 JUMPI PUSH1 0x20 CALLDATASIZE PUSH1 0x3 NOT ADD SLT PUSH2 0x171 JUMPI PUSH1 0x4 CALLDATALOAD PUSH1 0x0 MSTORE PUSH1 0x2 PUSH1 0x20 MSTORE PUSH1 0x80 PUSH1 0x40 PUSH1 0x0 KECCAK256 PUSH1 0x40 MLOAD SWAP1 PUSH2 0x11F6 DUP3 PUSH2 0x1970 JUMP JUMPDEST DUP1 SLOAD DUP3 MSTORE PUSH1 0x1 DUP2 ADD SLOAD PUSH1 0x20 DUP4 ADD MSTORE PUSH2 0x1210 PUSH1 0x2 DUP3 ADD PUSH2 0x19AD JUMP JUMPDEST PUSH1 0x40 DUP4 ADD MSTORE PUSH2 0x1221 PUSH1 0x3 DUP3 ADD PUSH2 0x19AD JUMP JUMPDEST PUSH1 0x60 DUP4 ADD MSTORE PUSH2 0x1232 PUSH1 0x4 DUP3 ADD PUSH2 0x19AD JUMP JUMPDEST DUP4 DUP4 ADD MSTORE PUSH2 0x1242 PUSH1 0x5 DUP3 ADD PUSH2 0x19AD JUMP JUMPDEST PUSH1 0xA0 DUP4 ADD MSTORE PUSH2 0x1253 PUSH1 0x6 DUP3 ADD PUSH2 0x19AD JUMP JUMPDEST PUSH1 0xC0 DUP4 ADD MSTORE PUSH2 0x1264 PUSH1 0x7 DUP3 ADD PUSH2 0x19AD JUMP JUMPDEST PUSH1 0xE0 DUP4 ADD MSTORE PUSH1 0xFF PUSH1 0x8 DUP3 ADD SLOAD DUP2 DUP2 AND PUSH2 0x100 DUP6 ADD MSTORE PUSH1 0x8 SHR AND ISZERO ISZERO PUSH2 0x120 DUP4 ADD MSTORE PUSH1 0x9 DUP2 ADD SLOAD PUSH2 0x140 DUP4 ADD MSTORE PUSH1 0xA DUP2 ADD SLOAD PUSH2 0x160 DUP4 ADD MSTORE PUSH1 0xB DUP2 ADD SLOAD PUSH2 0x180 DUP4 ADD MSTORE PUSH1 0xC DUP2 ADD SLOAD SWAP2 DUP3 PUSH2 0x1A0 DUP3 ADD MSTORE PUSH2 0x12E1 PUSH2 0x1E0 PUSH1 0xE PUSH1 0xD DUP6 ADD SLOAD SWAP5 DUP6 PUSH2 0x1C0 DUP7 ADD MSTORE ADD SLOAD SWAP3 ADD DUP3 DUP2 MSTORE PUSH2 0x12D9 DUP5 DUP7 PUSH2 0x1C5A JUMP JUMPDEST SWAP1 MLOAD SWAP1 PUSH2 0x1C5A JUMP JUMPDEST SWAP2 PUSH1 0x40 MLOAD SWAP4 DUP5 MSTORE PUSH1 0x20 DUP5 ADD MSTORE PUSH1 0x40 DUP4 ADD MSTORE PUSH1 0x60 DUP3 ADD MSTORE RETURN JUMPDEST CALLVALUE PUSH2 0x171 JUMPI PUSH1 0x20 CALLDATASIZE PUSH1 0x3 NOT ADD SLT PUSH2 0x171 JUMPI PUSH1 0x4 CALLDATALOAD PUSH1 0x0 MSTORE PUSH1 0x2 PUSH1 0x20 MSTORE PUSH1 0x40 PUSH1 0x0 KECCAK256 DUP1 SLOAD SWAP1 PUSH1 0x1 DUP2 ADD SLOAD SWAP1 PUSH1 0x2 DUP2 ADD PUSH2 0x1330 SWAP1 PUSH2 0x19AD JUMP JUMPDEST PUSH2 0x133C PUSH1 0x3 DUP4 ADD PUSH2 0x19AD JUMP JUMPDEST SWAP2 PUSH2 0x1349 PUSH1 0x4 DUP3 ADD PUSH2 0x19AD JUMP JUMPDEST SWAP3 PUSH2 0x1356 PUSH1 0x5 DUP4 ADD PUSH2 0x19AD JUMP JUMPDEST SWAP4 PUSH2 0x1363 PUSH1 0x6 DUP5 ADD PUSH2 0x19AD JUMP JUMPDEST SWAP5 PUSH2 0x1370 PUSH1 0x7 DUP6 ADD PUSH2 0x19AD JUMP JUMPDEST SWAP6 PUSH1 0x8 DUP6 ADD SLOAD SWAP7 PUSH1 0x9 DUP7 ADD SLOAD SWAP2 PUSH1 0xA DUP8 ADD SLOAD SWAP4 PUSH1 0xB DUP9 ADD SLOAD SWAP6 PUSH1 0xC DUP10 ADD SLOAD SWAP8 PUSH1 0xD DUP11 ADD SLOAD SWAP10 PUSH1 0xE ADD SLOAD SWAP11 PUSH1 0x40 MLOAD SWAP15 DUP16 SWAP15 DUP16 SWAP1 PUSH2 0x200 SWAP3 DUP3 MSTORE PUSH1 0x20 DUP3 ADD MSTORE DUP2 PUSH1 0x40 DUP3 ADD MSTORE ADD PUSH2 0x13BD SWAP2 PUSH2 0x1A52 JUMP JUMPDEST DUP14 DUP2 SUB PUSH1 0x60 DUP16 ADD MSTORE PUSH2 0x13CE SWAP2 PUSH2 0x1A52 JUMP JUMPDEST DUP13 DUP2 SUB PUSH1 0x80 DUP15 ADD MSTORE PUSH2 0x13DF SWAP2 PUSH2 0x1A52 JUMP JUMPDEST DUP12 DUP2 SUB PUSH1 0xA0 DUP14 ADD MSTORE PUSH2 0x13F0 SWAP2 PUSH2 0x1A52 JUMP JUMPDEST DUP11 DUP2 SUB PUSH1 0xC0 DUP13 ADD MSTORE PUSH2 0x1401 SWAP2 PUSH2 0x1A52 JUMP JUMPDEST DUP10 DUP2 SUB PUSH1 0xE0 DUP12 ADD MSTORE PUSH2 0x1412 SWAP2 PUSH2 0x1A52 JUMP JUMPDEST SWAP7 PUSH1 0xFF DUP2 AND PUSH2 0x100 DUP11 ADD MSTORE PUSH1 0x8 SHR PUSH1 0xFF AND ISZERO ISZERO PUSH2 0x120 DUP10 ADD MSTORE PUSH2 0x140 DUP9 ADD MSTORE PUSH2 0x160 DUP8 ADD MSTORE PUSH2 0x180 DUP7 ADD MSTORE PUSH2 0x1A0 DUP6 ADD MSTORE PUSH2 0x1C0 DUP5 ADD MSTORE PUSH2 0x1E0 DUP4 ADD MSTORE SUB SWAP1 RETURN JUMPDEST CALLVALUE PUSH2 0x171 JUMPI PUSH1 0x20 DUP1 PUSH1 0x3 NOT CALLDATASIZE ADD SLT PUSH2 0x171 JUMPI PUSH1 0x4 CALLDATALOAD PUSH1 0x1 DUP1 PUSH1 0xA0 SHL SUB PUSH2 0x147E DUP2 PUSH1 0x0 SLOAD AND CALLER EQ PUSH2 0x1C67 JUMP JUMPDEST DUP2 PUSH1 0x0 MSTORE PUSH1 0x2 SWAP2 PUSH1 0x2 DUP5 MSTORE PUSH1 0xFF PUSH1 0x8 SWAP1 PUSH1 0xFF PUSH1 0x8 PUSH1 0x40 PUSH1 0x0 KECCAK256 ADD SLOAD PUSH1 0x8 SHR AND PUSH2 0x1664 JUMPI DUP3 PUSH1 0x0 MSTORE PUSH1 0x2 DUP7 MSTORE PUSH1 0xFF PUSH1 0x8 PUSH1 0x40 PUSH1 0x0 KECCAK256 ADD SLOAD AND ISZERO PUSH2 0x161F JUMPI PUSH1 0x0 JUMPDEST DUP4 PUSH1 0x0 MSTORE PUSH1 0x3 DUP1 DUP9 MSTORE PUSH1 0x40 PUSH1 0x0 KECCAK256 DUP1 SLOAD DUP4 LT ISZERO PUSH2 0x19 JUMPI DUP3 PUSH2 0x14DE SWAP2 PUSH2 0x1B84 JUMP JUMPDEST POP PUSH1 0x1 DUP1 DUP3 ADD SWAP2 DUP3 SLOAD SWAP4 DUP9 PUSH1 0x0 MSTORE DUP11 DUP13 MSTORE DUP7 DUP9 PUSH1 0x40 PUSH1 0x0 KECCAK256 ADD SLOAD AND DUP8 DUP7 PUSH1 0xA0 SHR AND EQ DUP1 PUSH2 0x1611 JUMPI JUMPDEST PUSH2 0x1518 JUMPI JUMPDEST POP POP POP POP POP PUSH1 0x1 ADD PUSH2 0x14BD JUMP JUMPDEST DUP11 DUP3 ADD SLOAD SWAP1 DUP3 ADD SLOAD SWAP1 DUP2 DUP2 MUL SWAP2 DUP2 DUP4 DIV EQ SWAP1 ISZERO OR ISZERO PUSH2 0x15FB JUMPI PUSH1 0x0 DUP1 DUP1 DUP1 DUP14 SWAP9 PUSH1 0x64 DUP1 SWAP7 DIV SWAP10 DUP11 SWAP2 AND GAS CALL RETURNDATASIZE ISZERO PUSH2 0x15F6 JUMPI RETURNDATASIZE PUSH1 0x0 DUP15 PUSH2 0x1556 DUP4 PUSH2 0x1BB6 JUMP JUMPDEST SWAP3 PUSH2 0x1564 PUSH1 0x40 MLOAD SWAP5 DUP6 PUSH2 0x198C JUMP JUMPDEST DUP4 MSTORE RETURNDATASIZE SWAP3 ADD RETURNDATACOPY JUMPDEST ISZERO PUSH2 0x15BD JUMPI POP DUP11 DUP10 PUSH1 0x1 SWAP7 SWAP6 SWAP5 DUP11 SWAP5 PUSH1 0x4 PUSH32 0x100CD22A04E3BFA4D7109899122210FFD588983EE3B6437A247E035F601B326 SWAP6 ADD SWAP1 PUSH1 0xFF NOT DUP3 SLOAD AND OR SWAP1 SSTORE SLOAD AND SWAP4 PUSH1 0x40 MLOAD SWAP1 DUP2 MSTORE LOG3 SWAP1 DUP9 DUP1 DUP1 DUP1 PUSH2 0x150B JUMP JUMPDEST PUSH1 0x40 MLOAD PUSH3 0x461BCD PUSH1 0xE5 SHL DUP2 MSTORE PUSH1 0x4 DUP2 ADD DUP14 SWAP1 MSTORE PUSH1 0x14 PUSH1 0x24 DUP3 ADD MSTORE PUSH20 0x2330B4B632B2103A379039B2B7321022BA3432B9 PUSH1 0x61 SHL PUSH1 0x44 DUP3 ADD MSTORE REVERT JUMPDEST PUSH2 0x156B JUMP JUMPDEST PUSH4 0x4E487B71 PUSH1 0xE0 SHL PUSH1 0x0 MSTORE PUSH1 0x11 PUSH1 0x4 MSTORE PUSH1 0x24 PUSH1 0x0 REVERT JUMPDEST POP DUP7 PUSH1 0x4 DUP4 ADD SLOAD AND ISZERO PUSH2 0x1506 JUMP JUMPDEST PUSH1 0x40 MLOAD PUSH3 0x461BCD PUSH1 0xE5 SHL DUP2 MSTORE PUSH1 0x4 DUP2 ADD DUP8 SWAP1 MSTORE PUSH1 0x17 PUSH1 0x24 DUP3 ADD MSTORE PUSH32 0x4576656E7420726573756C74206973206E6F7420736574000000000000000000 PUSH1 0x44 DUP3 ADD MSTORE PUSH1 0x64 SWAP1 REVERT JUMPDEST PUSH1 0x40 MLOAD PUSH3 0x461BCD PUSH1 0xE5 SHL DUP2 MSTORE PUSH1 0x4 DUP2 ADD DUP8 SWAP1 MSTORE PUSH1 0x15 PUSH1 0x24 DUP3 ADD MSTORE PUSH21 0x4576656E74206973207374696C6C20616374697665 PUSH1 0x58 SHL PUSH1 0x44 DUP3 ADD MSTORE PUSH1 0x64 SWAP1 REVERT JUMPDEST PUSH2 0x16AA CALLDATASIZE PUSH2 0x18FB JUMP JUMPDEST SWAP1 DUP1 PUSH1 0x0 MSTORE PUSH1 0x20 SWAP2 PUSH1 0x2 DUP4 MSTORE PUSH2 0x16CD PUSH1 0xFF PUSH1 0x8 PUSH1 0x40 PUSH1 0x0 KECCAK256 ADD SLOAD PUSH1 0x8 SHR AND PUSH2 0x1C18 JUMP JUMPDEST CALLVALUE ISZERO PUSH2 0x18AA JUMPI PUSH1 0xFF AND PUSH1 0x1 DUP2 LT ISZERO DUP1 PUSH2 0x189F JUMPI JUMPDEST ISZERO PUSH2 0x185A JUMPI DUP2 PUSH1 0x0 MSTORE PUSH1 0x2 DUP4 MSTORE PUSH1 0x40 PUSH1 0x0 KECCAK256 SWAP1 PUSH1 0x1 DUP2 EQ PUSH1 0x0 EQ PUSH2 0x1823 JUMPI PUSH1 0xC PUSH1 0x9 DUP4 ADD SLOAD SWAP3 ADD PUSH2 0x1713 CALLVALUE DUP3 SLOAD PUSH2 0x1C5A JUMP JUMPDEST SWAP1 SSTORE JUMPDEST DUP3 PUSH1 0x0 MSTORE PUSH1 0x3 DUP5 MSTORE PUSH1 0x40 PUSH1 0x0 KECCAK256 PUSH1 0x40 MLOAD PUSH2 0x172F DUP2 PUSH2 0x1955 JUMP JUMPDEST DUP5 DUP2 MSTORE DUP6 DUP2 ADD CALLER DUP2 MSTORE PUSH1 0x40 DUP3 ADD SWAP1 DUP5 DUP3 MSTORE PUSH1 0x60 DUP4 ADD CALLVALUE DUP2 MSTORE PUSH1 0x80 DUP5 ADD SWAP2 DUP8 DUP4 MSTORE PUSH1 0xA0 DUP6 ADD SWAP6 PUSH1 0x0 DUP8 MSTORE DUP1 SLOAD PUSH9 0x10000000000000000 DUP2 LT ISZERO PUSH2 0x7AA JUMPI PUSH2 0x177A SWAP2 PUSH1 0x1 DUP3 ADD DUP2 SSTORE PUSH2 0x1B84 JUMP JUMPDEST SWAP5 SWAP1 SWAP5 PUSH2 0x180D JUMPI PUSH1 0x4 SWAP6 MLOAD DUP6 SSTORE PUSH1 0x1 DUP6 ADD SWAP2 PUSH1 0x1 DUP1 PUSH1 0xA0 SHL SUB SWAP1 MLOAD AND DUP3 SLOAD SWAP2 PUSH1 0xFF PUSH1 0xA0 SHL SWAP1 MLOAD PUSH1 0xA0 SHL AND SWAP2 PUSH11 0xFFFFFFFFFFFFFFFFFFFFFF PUSH1 0xA8 SHL AND OR OR SWAP1 SSTORE MLOAD PUSH1 0x2 DUP4 ADD SSTORE MLOAD PUSH1 0x3 DUP3 ADD SSTORE ADD SWAP1 MLOAD ISZERO ISZERO PUSH1 0xFF DUP1 NOT DUP4 SLOAD AND SWAP2 AND OR SWAP1 SSTORE PUSH1 0x40 MLOAD SWAP4 CALLVALUE DUP6 MSTORE DUP5 ADD MSTORE PUSH1 0x40 DUP4 ADD MSTORE PUSH32 0x7CDDE6D299EA8FDC0ACEB52128AD2948A1DB7494031BD05CA26C6AE74B6E33B4 PUSH1 0x60 CALLER SWAP4 LOG3 STOP JUMPDEST PUSH4 0x4E487B71 PUSH1 0xE0 SHL PUSH1 0x0 MSTORE PUSH1 0x0 PUSH1 0x4 MSTORE PUSH1 0x24 PUSH1 0x0 REVERT JUMPDEST PUSH1 0x2 DUP2 SUB PUSH2 0x1846 JUMPI PUSH1 0xD PUSH1 0xA DUP4 ADD SLOAD SWAP3 ADD PUSH2 0x183F CALLVALUE DUP3 SLOAD PUSH2 0x1C5A JUMP JUMPDEST SWAP1 SSTORE PUSH2 0x1716 JUMP JUMPDEST PUSH1 0xE PUSH1 0xB DUP4 ADD SLOAD SWAP3 ADD PUSH2 0x183F CALLVALUE DUP3 SLOAD PUSH2 0x1C5A JUMP JUMPDEST PUSH1 0x40 MLOAD PUSH3 0x461BCD PUSH1 0xE5 SHL DUP2 MSTORE PUSH1 0x4 DUP2 ADD DUP5 SWAP1 MSTORE PUSH1 0x18 PUSH1 0x24 DUP3 ADD MSTORE PUSH32 0x496E76616C69642070726564696374656420726573756C740000000000000000 PUSH1 0x44 DUP3 ADD MSTORE PUSH1 0x64 SWAP1 REVERT JUMPDEST POP PUSH1 0x3 DUP2 GT ISZERO PUSH2 0x16E1 JUMP JUMPDEST PUSH1 0x40 MLOAD PUSH3 0x461BCD PUSH1 0xE5 SHL DUP2 MSTORE PUSH1 0x4 DUP2 ADD DUP5 SWAP1 MSTORE PUSH1 0x24 DUP1 DUP3 ADD MSTORE PUSH32 0x42657420616D6F756E74206D7573742062652067726561746572207468616E20 PUSH1 0x44 DUP3 ADD MSTORE PUSH4 0x7A65726F PUSH1 0xE0 SHL PUSH1 0x64 DUP3 ADD MSTORE PUSH1 0x84 SWAP1 REVERT JUMPDEST PUSH1 0x40 SWAP1 PUSH1 0x3 NOT ADD SLT PUSH2 0x171 JUMPI PUSH1 0x4 CALLDATALOAD SWAP1 PUSH1 0x24 CALLDATALOAD PUSH1 0xFF DUP2 AND DUP2 SUB PUSH2 0x171 JUMPI SWAP1 JUMP JUMPDEST SWAP1 PUSH1 0x1 DUP3 DUP2 SHR SWAP3 AND DUP1 ISZERO PUSH2 0x194B JUMPI JUMPDEST PUSH1 0x20 DUP4 LT EQ PUSH2 0x1935 JUMPI JUMP JUMPDEST PUSH4 0x4E487B71 PUSH1 0xE0 SHL PUSH1 0x0 MSTORE PUSH1 0x22 PUSH1 0x4 MSTORE PUSH1 0x24 PUSH1 0x0 REVERT JUMPDEST SWAP2 PUSH1 0x7F AND SWAP2 PUSH2 0x192A JUMP JUMPDEST PUSH1 0xC0 DUP2 ADD SWAP1 DUP2 LT PUSH1 0x1 PUSH1 0x1 PUSH1 0x40 SHL SUB DUP3 GT OR PUSH2 0x7AA JUMPI PUSH1 0x40 MSTORE JUMP JUMPDEST PUSH2 0x200 DUP2 ADD SWAP1 DUP2 LT PUSH1 0x1 PUSH1 0x1 PUSH1 0x40 SHL SUB DUP3 GT OR PUSH2 0x7AA JUMPI PUSH1 0x40 MSTORE JUMP JUMPDEST SWAP1 PUSH1 0x1F DUP1 NOT SWAP2 ADD AND DUP2 ADD SWAP1 DUP2 LT PUSH1 0x1 PUSH1 0x1 PUSH1 0x40 SHL SUB DUP3 GT OR PUSH2 0x7AA JUMPI PUSH1 0x40 MSTORE JUMP JUMPDEST SWAP1 PUSH1 0x40 MLOAD SWAP2 DUP3 PUSH1 0x0 DUP3 SLOAD PUSH2 0x19C0 DUP2 PUSH2 0x191B JUMP JUMPDEST SWAP1 DUP2 DUP5 MSTORE PUSH1 0x20 SWAP5 PUSH1 0x1 SWAP2 PUSH1 0x1 DUP2 AND SWAP1 DUP2 PUSH1 0x0 EQ PUSH2 0x1A30 JUMPI POP PUSH1 0x1 EQ PUSH2 0x19F1 JUMPI JUMPDEST POP POP POP PUSH2 0x19EF SWAP3 POP SUB DUP4 PUSH2 0x198C JUMP JUMPDEST JUMP JUMPDEST PUSH1 0x0 SWAP1 DUP2 MSTORE DUP6 DUP2 KECCAK256 SWAP6 SWAP4 POP SWAP2 SWAP1 JUMPDEST DUP2 DUP4 LT PUSH2 0x1A18 JUMPI POP POP PUSH2 0x19EF SWAP4 POP DUP3 ADD ADD CODESIZE DUP1 DUP1 PUSH2 0x19E0 JUMP JUMPDEST DUP6 SLOAD DUP9 DUP5 ADD DUP6 ADD MSTORE SWAP5 DUP6 ADD SWAP5 DUP8 SWAP5 POP SWAP2 DUP4 ADD SWAP2 PUSH2 0x19FF JUMP JUMPDEST SWAP3 POP POP POP PUSH2 0x19EF SWAP5 SWAP3 POP PUSH1 0xFF NOT AND DUP3 DUP5 ADD MSTORE ISZERO ISZERO PUSH1 0x5 SHL DUP3 ADD ADD CODESIZE DUP1 DUP1 PUSH2 0x19E0 JUMP JUMPDEST SWAP2 SWAP1 DUP3 MLOAD SWAP3 DUP4 DUP3 MSTORE PUSH1 0x0 JUMPDEST DUP5 DUP2 LT PUSH2 0x1A7E JUMPI POP POP DUP3 PUSH1 0x0 PUSH1 0x20 DUP1 SWAP5 SWAP6 DUP5 ADD ADD MSTORE PUSH1 0x1F DUP1 NOT SWAP2 ADD AND ADD ADD SWAP1 JUMP JUMPDEST PUSH1 0x20 DUP2 DUP4 ADD DUP2 ADD MLOAD DUP5 DUP4 ADD DUP3 ADD MSTORE ADD PUSH2 0x1A5D JUMP JUMPDEST SWAP1 PUSH2 0x1B24 PUSH2 0x1B12 PUSH2 0x1B00 PUSH2 0x1AEE PUSH2 0x1ADC PUSH2 0x1ACA PUSH2 0x200 DUP9 MLOAD DUP9 MSTORE PUSH1 0x20 DUP10 ADD MLOAD PUSH1 0x20 DUP10 ADD MSTORE PUSH1 0x40 DUP10 ADD MLOAD SWAP1 DUP1 PUSH1 0x40 DUP11 ADD MSTORE DUP9 ADD SWAP1 PUSH2 0x1A52 JUMP JUMPDEST PUSH1 0x60 DUP9 ADD MLOAD DUP8 DUP3 SUB PUSH1 0x60 DUP10 ADD MSTORE PUSH2 0x1A52 JUMP JUMPDEST PUSH1 0x80 DUP8 ADD MLOAD DUP7 DUP3 SUB PUSH1 0x80 DUP9 ADD MSTORE PUSH2 0x1A52 JUMP JUMPDEST PUSH1 0xA0 DUP7 ADD MLOAD DUP6 DUP3 SUB PUSH1 0xA0 DUP8 ADD MSTORE PUSH2 0x1A52 JUMP JUMPDEST PUSH1 0xC0 DUP6 ADD MLOAD DUP5 DUP3 SUB PUSH1 0xC0 DUP7 ADD MSTORE PUSH2 0x1A52 JUMP JUMPDEST PUSH1 0xE0 DUP5 ADD MLOAD DUP4 DUP3 SUB PUSH1 0xE0 DUP6 ADD MSTORE PUSH2 0x1A52 JUMP JUMPDEST SWAP2 PUSH2 0x100 PUSH1 0xFF DUP2 DUP4 ADD MLOAD AND SWAP1 DUP4 ADD MSTORE PUSH2 0x120 DUP1 DUP3 ADD MLOAD ISZERO ISZERO SWAP1 DUP4 ADD MSTORE PUSH2 0x140 DUP1 DUP3 ADD MLOAD SWAP1 DUP4 ADD MSTORE PUSH2 0x160 DUP1 DUP3 ADD MLOAD SWAP1 DUP4 ADD MSTORE PUSH2 0x180 DUP1 DUP3 ADD MLOAD SWAP1 DUP4 ADD MSTORE PUSH2 0x1A0 DUP1 DUP3 ADD MLOAD SWAP1 DUP4 ADD MSTORE PUSH2 0x1C0 DUP1 DUP3 ADD MLOAD SWAP1 DUP4 ADD MSTORE PUSH2 0x1E0 DUP1 SWAP2 ADD MLOAD SWAP2 ADD MSTORE SWAP1 JUMP JUMPDEST DUP1 SLOAD DUP3 LT ISZERO PUSH2 0x1BA0 JUMPI PUSH1 0x0 MSTORE PUSH1 0x5 PUSH1 0x20 PUSH1 0x0 KECCAK256 SWAP2 MUL ADD SWAP1 PUSH1 0x0 SWAP1 JUMP JUMPDEST PUSH4 0x4E487B71 PUSH1 0xE0 SHL PUSH1 0x0 MSTORE PUSH1 0x32 PUSH1 0x4 MSTORE PUSH1 0x24 PUSH1 0x0 REVERT JUMPDEST PUSH1 0x1 PUSH1 0x1 PUSH1 0x40 SHL SUB DUP2 GT PUSH2 0x7AA JUMPI PUSH1 0x1F ADD PUSH1 0x1F NOT AND PUSH1 0x20 ADD SWAP1 JUMP JUMPDEST DUP2 PUSH1 0x1F DUP3 ADD SLT ISZERO PUSH2 0x171 JUMPI DUP1 CALLDATALOAD SWAP1 PUSH2 0x1BE8 DUP3 PUSH2 0x1BB6 JUMP JUMPDEST SWAP3 PUSH2 0x1BF6 PUSH1 0x40 MLOAD SWAP5 DUP6 PUSH2 0x198C JUMP JUMPDEST DUP3 DUP5 MSTORE PUSH1 0x20 DUP4 DUP4 ADD ADD GT PUSH2 0x171 JUMPI DUP2 PUSH1 0x0 SWAP3 PUSH1 0x20 DUP1 SWAP4 ADD DUP4 DUP7 ADD CALLDATACOPY DUP4 ADD ADD MSTORE SWAP1 JUMP JUMPDEST ISZERO PUSH2 0x1C1F JUMPI JUMP JUMPDEST PUSH1 0x40 MLOAD PUSH3 0x461BCD PUSH1 0xE5 SHL DUP2 MSTORE PUSH1 0x20 PUSH1 0x4 DUP3 ADD MSTORE PUSH1 0x13 PUSH1 0x24 DUP3 ADD MSTORE PUSH19 0x4576656E74206973206E6F7420616374697665 PUSH1 0x68 SHL PUSH1 0x44 DUP3 ADD MSTORE PUSH1 0x64 SWAP1 REVERT JUMPDEST SWAP2 SWAP1 DUP3 ADD DUP1 SWAP3 GT PUSH2 0x15FB JUMPI JUMP JUMPDEST ISZERO PUSH2 0x1C6E JUMPI JUMP JUMPDEST PUSH1 0x40 MLOAD PUSH3 0x461BCD PUSH1 0xE5 SHL DUP2 MSTORE PUSH1 0x20 PUSH1 0x4 DUP3 ADD MSTORE PUSH1 0x21 PUSH1 0x24 DUP3 ADD MSTORE PUSH32 0x4F6E6C79206F776E65722063616E2063616C6C20746869732066756E6374696F PUSH1 0x44 DUP3 ADD MSTORE PUSH1 0x37 PUSH1 0xF9 SHL PUSH1 0x64 DUP3 ADD MSTORE PUSH1 0x84 SWAP1 REVERT JUMPDEST PUSH1 0x0 NOT DUP2 EQ PUSH2 0x15FB JUMPI PUSH1 0x1 ADD SWAP1 JUMP JUMPDEST PUSH1 0x1 PUSH1 0x1 PUSH1 0x40 SHL SUB DUP2 GT PUSH2 0x7AA JUMPI PUSH1 0x5 SHL PUSH1 0x20 ADD SWAP1 JUMP JUMPDEST DUP1 MLOAD DUP3 LT ISZERO PUSH2 0x1BA0 JUMPI PUSH1 0x20 SWAP2 PUSH1 0x5 SHL ADD ADD SWAP1 JUMP JUMPDEST PUSH1 0x40 MLOAD SWAP1 PUSH2 0x1D04 DUP3 PUSH2 0x1970 JUMP JUMPDEST DUP2 PUSH2 0x1E0 PUSH1 0x0 SWAP2 DUP3 DUP2 MSTORE DUP3 PUSH1 0x20 DUP3 ADD MSTORE PUSH1 0x60 DUP1 PUSH1 0x40 DUP4 ADD MSTORE DUP1 DUP1 DUP4 ADD MSTORE DUP1 PUSH1 0x80 DUP4 ADD MSTORE DUP1 PUSH1 0xA0 DUP4 ADD MSTORE DUP1 PUSH1 0xC0 DUP4 ADD MSTORE PUSH1 0xE0 DUP3 ADD MSTORE DUP3 PUSH2 0x100 DUP3 ADD MSTORE DUP3 PUSH2 0x120 DUP3 ADD MSTORE DUP3 PUSH2 0x140 DUP3 ADD MSTORE DUP3 PUSH2 0x160 DUP3 ADD MSTORE DUP3 PUSH2 0x180 DUP3 ADD MSTORE DUP3 PUSH2 0x1A0 DUP3 ADD MSTORE DUP3 PUSH2 0x1C0 DUP3 ADD MSTORE ADD MSTORE JUMP JUMPDEST ISZERO PUSH2 0x1D74 JUMPI JUMP JUMPDEST PUSH1 0x40 MLOAD PUSH3 0x461BCD PUSH1 0xE5 SHL DUP2 MSTORE PUSH1 0x20 PUSH1 0x4 DUP3 ADD MSTORE PUSH1 0x14 PUSH1 0x24 DUP3 ADD MSTORE PUSH20 0x4F646473206D757374206265203E3D20312E303 PUSH1 0x64 SHL PUSH1 0x44 DUP3 ADD MSTORE PUSH1 0x64 SWAP1 REVERT INVALID LOG2 PUSH5 0x6970667358 0x22 SLT KECCAK256 0xC8 0x2F PUSH32 0x5BE613CDC8DACBDF3FF73D201AEBFB4D05D145027019AC1F7D4C4CCE6B64736F PUSH13 0x63430008180033000000000000 "},"methodIdentifiers":{"createEvent(uint256,string,string,string,string,string,string,uint256,uint256,uint256)":"b3a2df51","eventBets(uint256,uint256)":"8dcbbc6f","events(uint256)":"0b791430","getActiveEvents()":"3612280f","getEventById(uint256)":"b98079bc","getEventStats(uint256)":"25a19f04","getUserBets(address)":"2d56657d","payBets(uint256)":"08242f12","placeBet(uint256,uint8)":"03edf914","setEventResult(uint256,uint8)":"af71f95c","updateOdds(uint256,uint256,uint256,uint256)":"ffa548dd"}}}}}