{
  "_format": "hh-sol-artifact-1",
  "contractName": "Bets",
  "sourceName": "contracts/Bets.sol",
  "abi": [
    {
      "inputs": [],
      "stateMutability": "nonpayable",
      "type": "constructor"
    },
    {
      "anonymous": false,
      "inputs": [
        {
          "indexed": true,
          "internalType": "uint256",
          "name": "eventId",
          "type": "uint256"
        },
        {
          "indexed": true,
          "internalType": "address",
          "name": "better",
          "type": "address"
        },
        {
          "indexed": false,
          "internalType": "uint256",
          "name": "amount",
          "type": "uint256"
        }
      ],
      "name": "BetPaid",
      "type": "event"
    },
    {
      "anonymous": false,
      "inputs": [
        {
          "indexed": true,
          "internalType": "uint256",
          "name": "eventId",
          "type": "uint256"
        },
        {
          "indexed": true,
          "internalType": "address",
          "name": "better",
          "type": "address"
        },
        {
          "indexed": false,
          "internalType": "uint256",
          "name": "amount",
          "type": "uint256"
        },
        {
          "indexed": false,
          "internalType": "uint8",
          "name": "predictedResult",
          "type": "uint8"
        },
        {
          "indexed": false,
          "internalType": "uint256",
          "name": "odds",
          "type": "uint256"
        }
      ],
      "name": "BetPlaced",
      "type": "event"
    },
    {
      "anonymous": false,
      "inputs": [
        {
          "indexed": true,
          "internalType": "uint256",
          "name": "eventId",
          "type": "uint256"
        },
        {
          "indexed": false,
          "internalType": "uint256",
          "name": "oddsTeam1",
          "type": "uint256"
        },
        {
          "indexed": false,
          "internalType": "uint256",
          "name": "oddsTeam2",
          "type": "uint256"
        },
        {
          "indexed": false,
          "internalType": "uint256",
          "name": "oddsDraw",
          "type": "uint256"
        }
      ],
      "name": "OddsUpdated",
      "type": "event"
    },
    {
      "inputs": [
        {
          "internalType": "uint256",
          "name": "eventType",
          "type": "uint256"
        },
        {
          "internalType": "string",
          "name": "name",
          "type": "string"
        },
        {
          "internalType": "string",
          "name": "team1name",
          "type": "string"
        },
        {
          "internalType": "string",
          "name": "team2name",
          "type": "string"
        },
        {
          "internalType": "string",
          "name": "team1imgurl",
          "type": "string"
        },
        {
          "internalType": "string",
          "name": "team2imgurl",
          "type": "string"
        },
        {
          "internalType": "string",
          "name": "time",
          "type": "string"
        },
        {
          "internalType": "uint256",
          "name": "oddsTeam1",
          "type": "uint256"
        },
        {
          "internalType": "uint256",
          "name": "oddsTeam2",
          "type": "uint256"
        },
        {
          "internalType": "uint256",
          "name": "oddsDraw",
          "type": "uint256"
        }
      ],
      "name": "createEvent",
      "outputs": [],
      "stateMutability": "nonpayable",
      "type": "function"
    },
    {
      "inputs": [
        {
          "internalType": "uint256",
          "name": "",
          "type": "uint256"
        },
        {
          "internalType": "uint256",
          "name": "",
          "type": "uint256"
        }
      ],
      "name": "eventBets",
      "outputs": [
        {
          "internalType": "uint256",
          "name": "eventId",
          "type": "uint256"
        },
        {
          "internalType": "address payable",
          "name": "better",
          "type": "address"
        },
        {
          "internalType": "uint8",
          "name": "predictedResult",
          "type": "uint8"
        },
        {
          "internalType": "uint256",
          "name": "amount",
          "type": "uint256"
        },
        {
          "internalType": "uint256",
          "name": "odds",
          "type": "uint256"
        },
        {
          "internalType": "bool",
          "name": "paid",
          "type": "bool"
        }
      ],
      "stateMutability": "view",
      "type": "function"
    },
    {
      "inputs": [
        {
          "internalType": "uint256",
          "name": "",
          "type": "uint256"
        }
      ],
      "name": "events",
      "outputs": [
        {
          "internalType": "uint256",
          "name": "id",
          "type": "uint256"
        },
        {
          "internalType": "uint256",
          "name": "eventType",
          "type": "uint256"
        },
        {
          "internalType": "string",
          "name": "name",
          "type": "string"
        },
        {
          "internalType": "string",
          "name": "team1name",
          "type": "string"
        },
        {
          "internalType": "string",
          "name": "team2name",
          "type": "string"
        },
        {
          "internalType": "string",
          "name": "team1imgurl",
          "type": "string"
        },
        {
          "internalType": "string",
          "name": "team2imgurl",
          "type": "string"
        },
        {
          "internalType": "string",
          "name": "time",
          "type": "string"
        },
        {
          "internalType": "uint8",
          "name": "result",
          "type": "uint8"
        },
        {
          "internalType": "bool",
          "name": "isActive",
          "type": "bool"
        },
        {
          "internalType": "uint256",
          "name": "oddsTeam1",
          "type": "uint256"
        },
        {
          "internalType": "uint256",
          "name": "oddsTeam2",
          "type": "uint256"
        },
        {
          "internalType": "uint256",
          "name": "oddsDraw",
          "type": "uint256"
        },
        {
          "internalType": "uint256",
          "name": "totalBetsTeam1",
          "type": "uint256"
        },
        {
          "internalType": "uint256",
          "name": "totalBetsTeam2",
          "type": "uint256"
        },
        {
          "internalType": "uint256",
          "name": "totalBetsDraw",
          "type": "uint256"
        }
      ],
      "stateMutability": "view",
      "type": "function"
    },
    {
      "inputs": [],
      "name": "getActiveEvents",
      "outputs": [
        {
          "components": [
            {
              "internalType": "uint256",
              "name": "id",
              "type": "uint256"
            },
            {
              "internalType": "uint256",
              "name": "eventType",
              "type": "uint256"
            },
            {
              "internalType": "string",
              "name": "name",
              "type": "string"
            },
            {
              "internalType": "string",
              "name": "team1name",
              "type": "string"
            },
            {
              "internalType": "string",
              "name": "team2name",
              "type": "string"
            },
            {
              "internalType": "string",
              "name": "team1imgurl",
              "type": "string"
            },
            {
              "internalType": "string",
              "name": "team2imgurl",
              "type": "string"
            },
            {
              "internalType": "string",
              "name": "time",
              "type": "string"
            },
            {
              "internalType": "uint8",
              "name": "result",
              "type": "uint8"
            },
            {
              "internalType": "bool",
              "name": "isActive",
              "type": "bool"
            },
            {
              "internalType": "uint256",
              "name": "oddsTeam1",
              "type": "uint256"
            },
            {
              "internalType": "uint256",
              "name": "oddsTeam2",
              "type": "uint256"
            },
            {
              "internalType": "uint256",
              "name": "oddsDraw",
              "type": "uint256"
            },
            {
              "internalType": "uint256",
              "name": "totalBetsTeam1",
              "type": "uint256"
            },
            {
              "internalType": "uint256",
              "name": "totalBetsTeam2",
              "type": "uint256"
            },
            {
              "internalType": "uint256",
              "name": "totalBetsDraw",
              "type": "uint256"
            }
          ],
          "internalType": "struct Bets.Event[]",
          "name": "",
          "type": "tuple[]"
        }
      ],
      "stateMutability": "view",
      "type": "function"
    },
    {
      "inputs": [
        {
          "internalType": "uint256",
          "name": "_id",
          "type": "uint256"
        }
      ],
      "name": "getEventById",
      "outputs": [
        {
          "components": [
            {
              "internalType": "uint256",
              "name": "id",
              "type": "uint256"
            },
            {
              "internalType": "uint256",
              "name": "eventType",
              "type": "uint256"
            },
            {
              "internalType": "string",
              "name": "name",
              "type": "string"
            },
            {
              "internalType": "string",
              "name": "team1name",
              "type": "string"
            },
            {
              "internalType": "string",
              "name": "team2name",
              "type": "string"
            },
            {
              "internalType": "string",
              "name": "team1imgurl",
              "type": "string"
            },
            {
              "internalType": "string",
              "name": "team2imgurl",
              "type": "string"
            },
            {
              "internalType": "string",
              "name": "time",
              "type": "string"
            },
            {
              "internalType": "uint8",
              "name": "result",
              "type": "uint8"
            },
            {
              "internalType": "bool",
              "name": "isActive",
              "type": "bool"
            },
            {
              "internalType": "uint256",
              "name": "oddsTeam1",
              "type": "uint256"
            },
            {
              "internalType": "uint256",
              "name": "oddsTeam2",
              "type": "uint256"
            },
            {
              "internalType": "uint256",
              "name": "oddsDraw",
              "type": "uint256"
            },
            {
              "internalType": "uint256",
              "name": "totalBetsTeam1",
              "type": "uint256"
            },
            {
              "internalType": "uint256",
              "name": "totalBetsTeam2",
              "type": "uint256"
            },
            {
              "internalType": "uint256",
              "name": "totalBetsDraw",
              "type": "uint256"
            }
          ],
          "internalType": "struct Bets.Event",
          "name": "",
          "type": "tuple"
        }
      ],
      "stateMutability": "view",
      "type": "function"
    },
    {
      "inputs": [
        {
          "internalType": "uint256",
          "name": "eventId",
          "type": "uint256"
        }
      ],
      "name": "getEventStats",
      "outputs": [
        {
          "internalType": "uint256",
          "name": "totalBetsTeam1",
          "type": "uint256"
        },
        {
          "internalType": "uint256",
          "name": "totalBetsTeam2",
          "type": "uint256"
        },
        {
          "internalType": "uint256",
          "name": "totalBetsDraw",
          "type": "uint256"
        },
        {
          "internalType": "uint256",
          "name": "totalPool",
          "type": "uint256"
        }
      ],
      "stateMutability": "view",
      "type": "function"
    },
    {
      "inputs": [
        {
          "internalType": "address",
          "name": "user",
          "type": "address"
        }
      ],
      "name": "getUserBets",
      "outputs": [
        {
          "components": [
            {
              "internalType": "uint256",
              "name": "eventId",
              "type": "uint256"
            },
            {
              "internalType": "address payable",
              "name": "better",
              "type": "address"
            },
            {
              "internalType": "uint8",
              "name": "predictedResult",
              "type": "uint8"
            },
            {
              "internalType": "uint256",
              "name": "amount",
              "type": "uint256"
            },
            {
              "internalType": "uint256",
              "name": "odds",
              "type": "uint256"
            },
            {
              "internalType": "bool",
              "name": "paid",
              "type": "bool"
            }
          ],
          "internalType": "struct Bets.Bet[]",
          "name": "",
          "type": "tuple[]"
        }
      ],
      "stateMutability": "view",
      "type": "function"
    },
    {
      "inputs": [
        {
          "internalType": "uint256",
          "name": "eventId",
          "type": "uint256"
        }
      ],
      "name": "payBets",
      "outputs": [],
      "stateMutability": "nonpayable",
      "type": "function"
    },
    {
      "inputs": [
        {
          "internalType": "uint256",
          "name": "eventId",
          "type": "uint256"
        },
        {
          "internalType": "uint8",
          "name": "predictedResult",
          "type": "uint8"
        }
      ],
      "name": "placeBet",
      "outputs": [],
      "stateMutability": "payable",
      "type": "function"
    },
    {
      "inputs": [
        {
          "internalType": "uint256",
          "name": "eventId",
          "type": "uint256"
        },
        {
          "internalType": "uint8",
          "name": "result",
          "type": "uint8"
        }
      ],
      "name": "setEventResult",
      "outputs": [],
      "stateMutability": "nonpayable",
      "type": "function"
    },
    {
      "inputs": [
        {
          "internalType": "uint256",
          "name": "eventId",
          "type": "uint256"
        },
        {
          "internalType": "uint256",
          "name": "oddsTeam1",
          "type": "uint256"
        },
        {
          "internalType": "uint256",
          "name": "oddsTeam2",
          "type": "uint256"
        },
        {
          "internalType": "uint256",
          "name": "oddsDraw",
          "type": "uint256"
        }
      ],
      "name": "updateOdds",
      "outputs": [],
      "stateMutability": "nonpayable",
      "type": "function"
    },
    {
      "stateMutability": "payable",
      "type": "receive"
    }
  ],
  "bytecode": "0x6080806040523461002b57600080546001600160a01b03191633178155600155611de690816100318239f35b600080fdfe6080604052600436101561001b575b361561001957600080fd5b005b60003560e01c806303edf914146116a157806308242f12146114535780630b791430146112f957806325a19f04146111c65780632d56657d14610f305780633612280f14610cdd5780638dcbbc6f14610c56578063af71f95c14610b9c578063b3a2df5114610299578063b98079bc146101765763ffa548dd0361000e5734610171576080366003190112610171576004357f893ac9c513b4380780f867c7b8bd044b0c9868ae211e7b5c6daaa79c936e4dbe6060602435604435606435906100ef60018060a01b03600054163314611c67565b85600052600260205261010f60ff60086040600020015460081c16611c18565b606483101580610166575b8061015b575b61012990611d6d565b85600052600260205281600b604060002085600982015583600a820155015560405192835260208301526040820152a2005b506064821015610120565b50606481101561011a565b600080fd5b346101715760203660031901126101715761018f611cf7565b5060043560005260026020526102956040600020600e604051916101b283611970565b80548352600181015460208401526101cc600282016119ad565b60408401526101dd600382016119ad565b60608401526101ee600482016119ad565b60808401526101ff600582016119ad565b60a0840152610210600682016119ad565b60c0840152610221600782016119ad565b60e084015260ff600882015481811661010086015260081c1615156101208401526009810154610140840152600a810154610160840152600b810154610180840152600c8101546101a0840152600d8101546101c084015201546101e0820152604051918291602083526020830190611a92565b0390f35b3461017157610140366003190112610171576024356001600160401b038111610171576102ca903690600401611bd1565b6044356001600160401b038111610171576102e9903690600401611bd1565b6064356001600160401b03811161017157610308903690600401611bd1565b6084356001600160401b03811161017157610327903690600401611bd1565b60a4356001600160401b03811161017157610346903690600401611bd1565b9060c4356001600160401b03811161017157610366903690600401611bd1565b9261037c60018060a01b03600054163314611c67565b606460e435101580610b8e575b80610b80575b61039890611d6d565b60015494604051966103a988611970565b868852600435602089015260408801526060870152608086015260a085015260c084015260e08301526000610100830152600161012083015260e435610140830152610104356101608301526101243561018083015260006101a083015260006101c083015260006101e083015260005260026020526040600020815181556020820151600182015560408201519182516001600160401b0381116107aa57610455600284015461191b565b601f8111610b39575b506020601f8211600114610acb5781929394600092610ac0575b50508160011b916000199060031b1c19161760028301555b60608101519182516001600160401b0381116107aa576104b3600383015461191b565b601f8111610a79575b506020601f8211600114610a0b5781929394600092610a00575b50508160011b916000199060031b1c19161760038201555b60808201519182516001600160401b0381116107aa57610511600484015461191b565b601f81116109b9575b506020601f821160011461094b5781929394600092610940575b50508160011b916000199060031b1c19161760048301555b60a08101519182516001600160401b0381116107aa5761056f600583015461191b565b601f81116108f9575b506020601f821160011461088b5781929394600092610880575b50508160011b916000199060031b1c19161760058201555b60c08201519182516001600160401b0381116107aa576105cd600684015461191b565b601f8111610839575b506020601f82116001146107cb57819293946000926107c0575b50508160011b916000199060031b1c19161760068301555b60e08101518051906001600160401b0382116107aa5761062b600785015461191b565b601f8111610763575b50602090601f83116001146106ed579180600e94926101e0946000926106e2575b50508160011b916000199060031b1c19161760078501555b6008840160ff6101008301511681549061ff00610120850151151560081b169161ffff1916171790556101408101516009850155610160810151600a850155610180810151600b8501556101a0810151600c8501556101c0810151600d85015501519101556106dd600154611cbd565b600155005b015190508680610655565b906007850160005260206000209160005b601f198516811061074b575092600e94926001926101e09583601f19811610610732575b505050811b01600785015561066d565b015160001960f88460031b161c19169055868080610722565b919260206001819286850151815501940192016106fe565b600785016000526020600020601f840160051c8101602085106107a3575b601f830160051c82018110610797575050610634565b60008155600101610781565b5080610781565b634e487b7160e01b600052604160045260246000fd5b0151905084806105f0565b6006840160005260206000209060005b601f19841681106108215750600193949583601f19811610610808575b505050811b016006830155610608565b015160001960f88460031b161c191690558480806107f8565b9091602060018192858a0151815501930191016107db565b600684016000526020600020601f830160051c810160208410610879575b601f830160051c8201811061086d5750506105d6565b60008155600101610857565b5080610857565b015190508480610592565b6005830160005260206000209060005b601f19841681106108e15750600193949583601f198116106108c8575b505050811b0160058201556105aa565b015160001960f88460031b161c191690558480806108b8565b9091602060018192858a01518155019301910161089b565b600583016000526020600020601f830160051c810160208410610939575b601f830160051c8201811061092d575050610578565b60008155600101610917565b5080610917565b015190508480610534565b6004840160005260206000209060005b601f19841681106109a15750600193949583601f19811610610988575b505050811b01600483015561054c565b015160001960f88460031b161c19169055848080610978565b9091602060018192858a01518155019301910161095b565b600484016000526020600020601f830160051c8101602084106109f9575b601f830160051c820181106109ed57505061051a565b600081556001016109d7565b50806109d7565b0151905084806104d6565b6003830160005260206000209060005b601f1984168110610a615750600193949583601f19811610610a48575b505050811b0160038201556104ee565b015160001960f88460031b161c19169055848080610a38565b9091602060018192858a015181550193019101610a1b565b600383016000526020600020601f830160051c810160208410610ab9575b601f830160051c82018110610aad5750506104bc565b60008155600101610a97565b5080610a97565b015190508480610478565b6002840160005260206000209060005b601f1984168110610b215750600193949583601f19811610610b08575b505050811b016002830155610490565b015160001960f88460031b161c19169055848080610af8565b9091602060018192858a015181550193019101610adb565b600284016000526020600020601f830160051c810160208410610b79575b601f830160051c82018110610b6d57505061045e565b60008155600101610b57565b5080610b57565b50606461012435101561038f565b506064610104351015610389565b346101715760ff610bac366118fb565b610bc460018060a09594951b03600054163314611c67565b826000526002602052610be38260086040600020015460081c16611c18565b1690600182101580610c4b575b15610c1557600052600260205260086040600020019061ffff19825416179055600080f35b60405162461bcd60e51b815260206004820152600e60248201526d125b9d985b1a59081c995cdd5b1d60921b6044820152606490fd5b506003821115610bf0565b34610171576040366003190112610171576024356004356000526003602052604060002080548210156101715760c091610c8f91611b84565b50805490600181015490600281015460ff8060046003850154940154169360405195865260018060a01b038116602087015260a01c16604085015260608401526080830152151560a0820152f35b346101715760003660031901126101715760008060018054915b828110610ef65750610d21610d0b84611ccc565b93610d19604051958661198c565b808552611ccc565b60209290601f190160005b818110610eda5750506000805b828110610da25750505060405191808301818452845180915260408401918060408360051b8701019601926000905b838210610d755786880387f35b90919293948380610d91839a603f198b82030186528951611a92565b999701959493919091019101610d68565b9283819694600052856002808252604060002090600880830154809160ff9283911c169283610ddb575b50505050505001949294610d39565b91600e9391610e0b610ece989a97969460405197610df889611970565b865489528b8701549089015285016119ad565b6040870152610e1c600385016119ad565b6060870152610e2d600485016119ad565b6080870152610e3e600585016119ad565b60a0870152610e4f600685016119ad565b60c0870152610e60600785016119ad565b60e08701521661010085015215156101208401526009810154610140840152600a810154610160840152600b810154610180840152600c8101546101a0840152600d8101546101c084015201546101e0820152610ebd8288611ce3565b52610ec88187611ce3565b50611cbd565b91858880808080610dcc565b8490610ee7969496611cf7565b82828701015201949294610d2c565b9081819492600052600260205260ff60088060406000200154901c16610f20575b01929092610cf7565b91610f2a90611cbd565b91610f17565b3461017157602080600319360112610171576004356001600160a01b038181169291839003610171579160009260006001928354915b82811061115b5750610f90610f7a87611ccc565b96610f88604051988961198c565b808852611ccc565b601f190160005b81811061111557505060009060005b83811061102a57505050506040519280840190808552855180925280604086019601926000905b838210610fda5786880387f35b845180518952838101518216848a015260408082015160ff16908a0152606080820151908a0152608080820151908a015260a09081015115159089015260c0909701969382019390850190610fcd565b90859795929183806000905b611049575b500190919250969496610fa6565b8260005289886003808352866040600020805486101561110b578661106f878693611b84565b5001541614611084575b505050810181611036565b9184939791611100938760005280835260046110a48b6040600020611b84565b50604051946110b286611955565b81548652888201549485169086015260ff928360a095861c1660408701526002820154606087015281015460808601520154161515908201526110f5828d611ce3565b52610ec8818c611ce3565b94905089888d611079565b505050505061103b565b869060409896985161112681611955565b60008152600083820152600060408201526000606082015260006080820152600060a082015282828901015201969496610f97565b93809694816000905b611173575b5001959395610f66565b8160005260038852838684604060002080548510156111bd578461119691611b84565b50015416146111a8575b820182611164565b95826111b48192611cbd565b979150506111a0565b50505050611169565b3461017157602036600319011261017157600435600052600260205260806040600020604051906111f682611970565b8054825260018101546020830152611210600282016119ad565b6040830152611221600382016119ad565b6060830152611232600482016119ad565b83830152611242600582016119ad565b60a0830152611253600682016119ad565b60c0830152611264600782016119ad565b60e083015260ff600882015481811661010085015260081c1615156101208301526009810154610140830152600a810154610160830152600b810154610180830152600c81015491826101a08201526112e16101e0600e600d85015494856101c0860152015492018281526112d98486611c5a565b905190611c5a565b91604051938452602084015260408301526060820152f35b34610171576020366003190112610171576004356000526002602052604060002080549060018101549060028101611330906119ad565b61133c600383016119ad565b91611349600482016119ad565b92611356600583016119ad565b93611363600684016119ad565b94611370600785016119ad565b95600885015496600986015491600a87015493600b88015495600c89015497600d8a015499600e01549a6040519e8f9e8f906102009282526020820152816040820152016113bd91611a52565b8d810360608f01526113ce91611a52565b8c810360808e01526113df91611a52565b8b810360a08d01526113f091611a52565b8a810360c08c015261140191611a52565b89810360e08b015261141291611a52565b9660ff81166101008a015260081c60ff1615156101208901526101408801526101608701526101808601526101a08501526101c08401526101e08301520390f35b34610171576020806003193601126101715760043560018060a01b0361147e81600054163314611c67565b816000526002916002845260ff60089060ff60086040600020015460081c1661166457826000526002865260ff600860406000200154161561161f5760005b8360005260038088526040600020805483101561001957826114de91611b84565b50600180820191825493886000528a8c5286886040600020015416878660a01c161480611611575b611518575b50505050506001016114bd565b8a82015490820154908181029181830414901517156115fb5760008080808d986064809604998a91165af13d156115f6573d60008e61155683611bb6565b92611564604051948561198c565b83523d92013e5b156115bd57508a8960019695948a9460047f0100cd22a04e3bfa4d7109899122210ffd588983ee3b6437a247e035f601b32695019060ff19825416179055541693604051908152a3908880808061150b565b60405162461bcd60e51b8152600481018d905260146024820152732330b4b632b2103a379039b2b7321022ba3432b960611b6044820152fd5b61156b565b634e487b7160e01b600052601160045260246000fd5b508660048301541615611506565b60405162461bcd60e51b815260048101879052601760248201527f4576656e7420726573756c74206973206e6f74207365740000000000000000006044820152606490fd5b60405162461bcd60e51b81526004810187905260156024820152744576656e74206973207374696c6c2061637469766560581b6044820152606490fd5b6116aa366118fb565b9080600052602091600283526116cd60ff60086040600020015460081c16611c18565b34156118aa5760ff1660018110158061189f575b1561185a5781600052600283526040600020906001811460001461182357600c60098301549201611713348254611c5a565b90555b8260005260038452604060002060405161172f81611955565b848152858101338152604082019084825260608301348152608084019187835260a0850195600087528054680100000000000000008110156107aa5761177a91600182018155611b84565b94909461180d57600495518555600185019160018060a01b0390511682549160ff60a01b905160a01b16916affffffffffffffffffffff60a81b1617179055516002830155516003820155019051151560ff801983541691161790556040519334855284015260408301527f7cdde6d299ea8fdc0aceb52128ad2948a1db7494031bd05ca26c6ae74b6e33b460603393a3005b634e487b7160e01b600052600060045260246000fd5b6002810361184657600d600a830154920161183f348254611c5a565b9055611716565b600e600b830154920161183f348254611c5a565b60405162461bcd60e51b815260048101849052601860248201527f496e76616c69642070726564696374656420726573756c7400000000000000006044820152606490fd5b5060038111156116e1565b60405162461bcd60e51b8152600481018490526024808201527f42657420616d6f756e74206d7573742062652067726561746572207468616e206044820152637a65726f60e01b6064820152608490fd5b6040906003190112610171576004359060243560ff811681036101715790565b90600182811c9216801561194b575b602083101461193557565b634e487b7160e01b600052602260045260246000fd5b91607f169161192a565b60c081019081106001600160401b038211176107aa57604052565b61020081019081106001600160401b038211176107aa57604052565b90601f801991011681019081106001600160401b038211176107aa57604052565b906040519182600082546119c08161191b565b90818452602094600191600181169081600014611a3057506001146119f1575b5050506119ef9250038361198c565b565b600090815285812095935091905b818310611a185750506119ef93508201013880806119e0565b855488840185015294850194879450918301916119ff565b925050506119ef94925060ff191682840152151560051b8201013880806119e0565b919082519283825260005b848110611a7e575050826000602080949584010152601f8019910116010190565b602081830181015184830182015201611a5d565b90611b24611b12611b00611aee611adc611aca61020088518852602089015160208901526040890151908060408a0152880190611a52565b60608801518782036060890152611a52565b60808701518682036080880152611a52565b60a086015185820360a0870152611a52565b60c085015184820360c0860152611a52565b60e084015183820360e0850152611a52565b9161010060ff818301511690830152610120808201511515908301526101408082015190830152610160808201519083015261018080820151908301526101a080820151908301526101c080820151908301526101e08091015191015290565b8054821015611ba0576000526005602060002091020190600090565b634e487b7160e01b600052603260045260246000fd5b6001600160401b0381116107aa57601f01601f191660200190565b81601f8201121561017157803590611be882611bb6565b92611bf6604051948561198c565b8284526020838301011161017157816000926020809301838601378301015290565b15611c1f57565b60405162461bcd60e51b81526020600482015260136024820152724576656e74206973206e6f742061637469766560681b6044820152606490fd5b919082018092116115fb57565b15611c6e57565b60405162461bcd60e51b815260206004820152602160248201527f4f6e6c79206f776e65722063616e2063616c6c20746869732066756e6374696f6044820152603760f91b6064820152608490fd5b60001981146115fb5760010190565b6001600160401b0381116107aa5760051b60200190565b8051821015611ba05760209160051b010190565b60405190611d0482611970565b816101e0600091828152826020820152606080604083015280808301528060808301528060a08301528060c083015260e08201528261010082015282610120820152826101408201528261016082015282610180820152826101a0820152826101c08201520152565b15611d7457565b60405162461bcd60e51b815260206004820152601460248201527304f646473206d757374206265203e3d20312e30360641b6044820152606490fdfea2646970667358221220c82f7f5be613cdc8dacbdf3ff73d201aebfb4d05d145027019ac1f7d4c4cce6b64736f6c63430008180033",
  "linkReferences": {},
  "deployedLinkReferences": {}
}